:020000040000FA
:100000000C943E010C946F010C946F010C946F01E1
:100010000C946F010C946F010C946F010C946F01A0
:100020000C946F010C94640C0C94640C0C94640C90
:100030000C946F010C946F010C946F010C946F0180
:100040000C946F010C946F010C946F010C946F0170
:100050000C946F010C946F010C946F010C941A0CAA
:100060000C946F010C94F00B0C94C60B0C946F0164
:100070000C946F010C946F010C946F010C946F0140
:100080000C946F010C946F010C946F010C946F0130
:100090000C949C0B0C94720B0C946F010C946F01DC
:1000A0000C946F010C946F010C946F010C946F0110
:1000B0000C946F010C946F010C946F010C946F0100
:1000C0000C946F010C946F010C946F010C94480B0D
:1000D0000C941E0B0C946F010C94F40A0C94CA0A35
:1000E0000C946F010C942E030C942A030C94E501DC
:1000F0000C946E0C0C9426030C9416020C943B0387
:100100000C94CD110C9431030C9437030C944503DB
:100110000C9445040C949F010C945C030C946C02A9
:100120000C94B9020C9461030C94F4010C945703E1
:100130000C941C030C9408020C9441030C94490386
:100140000C945D030C944F030C9422030C949506BD
:100150000C9453030C944404000021002400270055
:100160002A002D00300033000101000004010701C6
:100170000A0100002200250028002B002E0031007B
:10018000340002010000050108010B0100002000FD
:100190002300260029002C002F003200000100005F
:1001A00003010601090105050505070508080808FA
:1001B000020202020A0A08080404040401010101FF
:1001C00001010101030303030303030304070707FA
:1001D0000C0C0C0C0C0C0C0C02020202060606069F
:1001E000060606060B0B0B0B0B0B0B0B010210206C
:1001F000200808102040102040800201020108045D
:1002000002010102040810204080804020100804F0
:100210000201800402018040201008040201080449
:10022000020101020408102040800102040810208D
:10023000408000000A0B02090C0D0E0807030401A0
:1002400000000000000000000000000000000000AE
:10025000000000000000000000000000000012117B
:10026000100000000000000000000000000000007E
:1002700000000000000000006E0CCD1111241FBE14
:10028000CFEFD1E2DEBFCDBF00E00CBF27E0A8E991
:10029000B4E001C01D92A33BB207E1F714E0A0E077
:1002A000B2E0E0EBF8E200E00BBF02C007900D9275
:1002B000A839B107D9F711E0CDE3D1E000E006C0DD
:1002C00021970109802FFE010E942812CC33D1070B
:1002D00080E00807A9F70E945C0D0C9446140C946A
:1002E0000000FC01A089B18982E08C93A485B585CA
:1002F0001C92A685B7858FEC8C93108EA489B58946
:1003000086E08C93A289B3898C9180618C93A289B9
:10031000B3898C9188608C93A289B3898C91806811
:100320008C930288F389E02D80818F7D80830895EE
:10033000DC01ED91FC910190F081E02D1994AF92D8
:10034000BF92CF92DF92EF92FF920F931F93CF93C2
:10035000DF936C017B018B01040F151FEB015E0124
:10036000AE18BF08C017D10759F06991D601ED91B9
:10037000FC910190F081E02DC6011995892B79F748
:10038000C501DF91CF911F910F91FF90EF90DF900A
:10039000CF90BF90AF900895FC01A089B1898C9156
:1003A000A689B78982FD0FC09C91818D8F5F8F7365
:1003B000228D821749F0A18DAE0FBF2FB11D5D9622
:1003C0009C93818F08958C910895FC01538D448DE9
:1003D000252F30E0842F90E0821B930B541710F0F0
:1003E000CF96089501970895FC01918D828D9817FD
:1003F00061F0A28DAE0FBF2FB11D5D968C91928DD5
:100400009F5F9F73928F90E008958FEF9FEF089505
:10041000FC01918D828D981731F0828DE80FF11DCE
:10042000858D90E008958FEF9FEF0895FC01918DE9
:10043000228D892F90E0805C9F4F821B91098F73E2
:100440009927089585EE94E00E94160221E0892BF9
:1004500009F420E0822F089582E895E00E941602B8
:1004600021E0892B09F420E0822F08958CEB96E09F
:100470000E94160221E0892B09F420E0822F0895C2
:100480008FE196E00E94160221E0892B09F420E01A
:10049000822F0895FC01A48DA80FB92FB11DA35A76
:1004A000BF4F2C91848D90E001968F739927848F94
:1004B000A689B7892C93A089B1898C9183708064B7
:1004C0008C93938D848D981306C00288F389E02D58
:1004D00080818F7D80830895EF92FF920F931F9309
:1004E000CF93DF93EC0181E0888F9B8D8C8D9813E7
:1004F0001AC0E889F989808185FF15C09FB7F894F3
:10050000EE89FF896083E889F9898081837080643E
:1005100080839FBF81E090E0DF91CF911F910F9189
:10052000FF90EF900895F62E0B8D10E00F5F1F4F98
:100530000F731127E02E8C8D8E110CC00FB607FCA7
:10054000FACFE889F989808185FFF5CFCE010E9435
:100550004A02F1CFEB8DEC0FFD2FF11DE35AFF4F57
:10056000F0829FB7F8940B8FEA89FB8980818062C3
:10057000CFCFCF93DF93EC01888D8823B9F0AA8980
:10058000BB89E889F9898C9185FD03C0808186FD4E
:100590000DC00FB607FCF7CF8C9185FFF2CF80819D
:1005A00085FFEDCFCE010E944A02E9CFDF91CF91C6
:1005B000089580E090E0892B29F00E94400281118B
:1005C0000E94000080E090E0892B29F00E94360212
:1005D00081110E94000080E090E0892B29F00E94A8
:1005E0002C0281110E94000080E090E0892B29F00C
:1005F0000E94220281110C940000089581508231E2
:1006000008F05AC0E82FF0E08827E65FFC4F8F4FD4
:100610000C9428122A032E031C03220326035C03D6
:10062000310337033B034103450349034F0353039E
:100630005C0357035D036103809180008F77809393
:1006400080000895809180008F7DF9CF8091800097
:10065000877FF5CF84B58F7784BD089584B58F7D6E
:10066000FBCF8091B0008F778093B0000895809188
:10067000B0008F7DF9CF809190008F7780939000AC
:100680000895809190008F7DF9CF80919000877FB1
:10069000F5CF8091A0008F778093A000089580917E
:1006A000A0008F7DF9CF8091A000877FF5CF80914A
:1006B00020018F77809320010895809120018F7D04
:1006C000F9CF80912001877FF5CFCF93DF93282F3B
:1006D00030E0F901EE5CFD4F8491F901E451FE4FE9
:1006E000D491F901EA55FE4FC491CC23A1F08111B8
:1006F0000E94FE02EC2FF0E0EE0FFF1FE457FE4FCA
:10070000A591B491EC91ED2381E090E009F480E0B3
:10071000DF91CF91089580E090E0FACF1F93CF93BF
:10072000DF93282F30E0F901EE5CFD4F8491F90151
:10073000E451FE4FD491F901EA55FE4FC491CC2308
:10074000A9F0162F81110E94FE02EC2FF0E0EE0FAF
:10075000FF1FEE58FE4FA591B4918FB7F894EC911E
:10076000111108C0D095DE23DC938FBFDF91CF91AC
:100770001F910895DE2BF8CFCF93DF9390E0FC011B
:10078000E451FE4F24918A559E4FFC0184918823A9
:10079000D1F090E0880F991FFC01E85AFE4FA59117
:1007A000B491FC01EE58FE4FC591D491623071F4C2
:1007B0009FB7F8943C91822F809583238C93E88196
:1007C0002E2B28839FBFDF91CF9108958FB7F89488
:1007D000EC912E2B2C938FBFF6CF3FB7F8948091DE
:1007E000C7049091C804A091C904B091CA0426B569
:1007F000A89B05C02F3F19F00196A11DB11D3FBF59
:10080000BA2FA92F982F8827BC01CD01620F711D27
:10081000811D911D42E0660F771F881F991F4A9521
:10082000D1F708958F929F92AF92BF92CF92DF92AD
:10083000EF92FF924B015C010E94ED036B017C0182
:100840000E94ED036C197D098E099F09683E734073
:1008500081059105A8F321E0821A9108A108B10849
:1008600088EEC80E83E0D81EE11CF11C81149104AF
:10087000A104B10429F7FF90EF90DF90CF90BF90D3
:10088000AF909F908F900895089590E080E0089534
:1008900085E00E946503892B19F481E08093DF04D1
:1008A00085E00E946503019711F41092DF0408951A
:1008B0000F931F93CF93DF938C01D0E0C0E0D8015A
:1008C00014968D919C911597C817D90790F4ED91C6
:1008D000FC91309759F41092BF04EFEBF4E0608183
:1008E00082E895E00E946C022196E9CFEC0FFD1F93
:1008F000F6CFDF91CF911F910F91089560E087E1CE
:100900000E948E0361E089E10E948E0361E08BE129
:100910000E948E0361E08DE10E948E038FE10E94B0
:100920006503892B19F481E38093000281E20E9420
:100930006503892B19F482E38093000283E20E940D
:100940006503892B19F483E38093000285E20E94FA
:100950006503892B19F481E48093000261E087E14B
:100960000E948E0360E089E10E948E0361E08BE1CA
:100970000E948E0361E08DE10E948E038FE10E9450
:100980006503892B19F484E38093000281E20E94BD
:100990006503892B19F485E38093000283E20E94AA
:1009A0006503892B19F486E38093000285E20E9497
:1009B0006503892B19F482E48093000261E087E1EA
:1009C0000E948E0361E089E10E948E0360E08BE16A
:1009D0000E948E0361E08DE10E948E038FE10E94F0
:1009E0006503892B19F487E38093000281E20E945A
:1009F0006503892B19F488E38093000283E20E9447
:100A00006503892B19F489E38093000285E20E9433
:100A10006503892B19F483E48093000261E087E188
:100A20000E948E0361E089E10E948E0361E08BE108
:100A30000E948E0360E08DE10E948E038FE10E9490
:100A40006503892B19F48AE28093000281E20E94F7
:100A50006503892B19F480E38093000283E20E94EE
:100A60006503892B19F483E28093000285E20E94DA
:100A70006503892B19F484E48093000280910002BD
:100A80000895CF93DF93EC0160E08E810E948E0386
:100A900061E08E810E948E0360E08E810E948E0351
:100AA0008BE891E00197F1F7DF91CF910895CF9214
:100AB000DF92EF92FF920F931F93CF93DF936C011E
:100AC0007C0187E0E80EF11CD0E0C0E0062F10E0CA
:100AD000B8010C2E02C0759567950A94E2F7617013
:100AE000F70181917F010E948E032196C430D105C8
:100AF00079F7C601DF91CF911F910F91FF90EF9091
:100B0000DF90CF900C944105CF92DF92EF92FF924D
:100B10000F931F93CF93DF93EC01F62E642F8C81FC
:100B20000E948E038D818F3F19F060E00E948E033A
:100B30000F2D10E08F8584FF25C06E0187E0C80E61
:100B4000D11CF12CE12CB8010E2C02C075956795D3
:100B50000A94E2F76170F60181916F010E948E03A1
:100B6000FFEFEF1AFF0A88E0E816F10461F7CE0103
:100B7000DF91CF911F910F91FF90EF90DF90CF9079
:100B80000C944105B80184E0759567958A95E1F765
:100B9000CE010E9457056F2DCE01DF91CF911F919D
:100BA0000F91FF90EF90DF90CF900C94570540E0AD
:100BB000682F87E997E00C94840581E00E94D705AF
:100BC0008BE39FE10197F1F70895CF93DF93823094
:100BD00029F49091A60798609093A6078093AA079E
:100BE0001092AB0780E48093AC0780E18093AD075F
:100BF00080E58093AE0761E080919B070E94BC0373
:100C000080919C078F3F19F061E00E94BC0361E076
:100C100080919D070E94BC03C7E9D7E09E01275938
:100C200037408091A60784FD0BC084E090E02196B8
:100C30002817390744F461E08E810E94BC03EECF8F
:100C400088E090E0F4CF8BE39DE00197F1F760E05E
:100C500080919B070E948E0360E080919D070E9417
:100C60008E0380919C078F3F19F060E00E948E03F5
:100C70008091A60784FD34C063E087E997E00E9475
:100C80005705CBE4D6E4CE010197F1F763E087E99D
:100C900097E00E9457052197F1F763E087E997E015
:100CA0000E94570583E592E00197F1F762E087E93A
:100CB00097E00E9457058091A60780620E94D705A1
:100CC00084E08093A7078CE00E94D7050E94DD0591
:100CD00082E08093A80786E0DF91CF910C94D7053E
:100CE00080620E94D7058BE496E40197F1F780912A
:100CF000A60780620E94D70583E592E00197F1F78D
:100D00008091A60780620E94D705D5CF9091AA074F
:100D1000691710F06FEF690FE62FF0E0E956F84F12
:100D20009489890F80680C94D70541E00E9484055E
:100D300081E090E00895FB0101900020E9F73197F0
:100D4000AF01461B570BDC01ED91FC910280F38152
:100D5000E02D1994CF93DF93FC014481558160818C
:100D600071818FE196E00E949F01EC0168E972E0D9
:100D70008FE196E00E949B068C0F9D1FDF91CF9123
:100D80000895BC0187E997E00C949B06AF92BF924F
:100D9000CF92DF92EF92FF920F931F93CF93DF9347
:100DA00003E010E084E0E82EF12CC5E0D0E0CC2494
:100DB000C394D12C22E0A22EB12C85EE94E00E94A7
:100DC0001602181619060CF063C085EE94E00E9416
:100DD000F40180939B04682F8FE196E00E949801B4
:100DE00080919B048334B1F19CF4813421F18234ED
:100DF00021F70E94DD0560E080E00E94860685EA1A
:100E000092E00E94C106B092D404A092D304D5CF40
:100E1000843479F1853489F60E94DD0560E080E054
:100E20000E94860683EC92E00E94C106D093D4040F
:100E3000C093D304C2CF0E94DD0560E080E00E9431
:100E400086068BE992E00E94C106D092D404C0923B
:100E5000D304B3CF0E94DD0560E080E00E948606E7
:100E60008FEA92E00E94C1061093D4040093D30449
:100E7000A4CF0E94DD0560E080E00E94860689EB39
:100E800092E00E94C106F092D404E092D30495CF80
:100E90008091D3049091D404DF91CF911F910F9151
:100EA000FF90EF90DF90CF90BF90AF9008954F925A
:100EB0005F926F927F928F929F92AF92BF92CF92EA
:100EC000DF92EF92FF920F931F93CF93DF93CDB7F3
:100ED000DEB7A1970FB6F894DEBF0FBECDBF8C0171
:100EE0006B01770FEE08FF08F7FE44C06DE20E9429
:100EF00098015C0122273327A9012C193D094E09CD
:100F00005F0919A2CE0181967C019AE0492E512CED
:100F1000612C712CCA01B901A30192010E94061231
:100F2000605DF70162937F0121153105410551058F
:100F300089F790E080E0309721F0BF01C8010E945E
:100F40009B068A0D9B1DA1960FB6F894DEBF0FBEBF
:100F5000CDBFDF91CF911F910F91FF90EF90DF9068
:100F6000CF90BF90AF909F908F907F906F905F9049
:100F70004F900895A701960119A2CE0181967C0198
:100F80008AE0882E912CA12CB12CCA01B901A501AF
:100F900094010E940612605DF70162937F012115A2
:100FA00031054105510589F790E080E0309759F20D
:100FB000BF01C8010E949B06C6CF0F931F93CF931A
:100FC000DF93EC0188819981009759F02A813B8158
:100FD0002617370730F081E0DF91CF911F910F91F5
:100FE00008958B016F5F7F4F0E945513009759F052
:100FF000998388831B830A832C813D81232B59F796
:10100000FC011082E8CF80E0E7CFEF92FF920F93D0
:101010001F93CF93DF936115710541F480E0DF9159
:10102000CF911F910F91FF90EF90089541155105B9
:10103000B1F07B01EC010C811D81040F151FB8017B
:101040000E94DD07882351F3288139818C819D819D
:10105000B701820F931F0E943F141D830C8381E010
:10106000DECFCF93DF93EC0188819981009711F057
:101070000E94CC12198218821D821C821B821A8245
:10108000DF91CF910895CF93DF93EC01FB010190A5
:101090000020E9F73197AF01461B570B0E94050866
:1010A000811103C0CE010E943108CE01DF91CF91A2
:1010B0000895CF93DF93EC01FB014481558160815A
:1010C00071810E940508811103C0CE010E94310880
:1010D000CE01DF91CF910895EF92FF920F931F936E
:1010E000CF93DF93EC017B018A01BA010E94DD07F7
:1010F00081110BC0CE010E943108CE01DF91CF914A
:101100001F910F91FF90EF9008951D830C83B701FD
:10111000888199810E943F14F0CF1F93CF93DF9372
:101120001F921F92CDB7DEB78FE196E00E941602A4
:10113000892B19F18FE196E00E94F401182F682F96
:101140008FE196E00E94980119831A8241E050E0F5
:10115000BE016F5F7F4F81E997E00E940508809193
:10116000B3049091B4040B9709F0DDC01092B4045D
:101170001092B30481E08093B2048091B20488237A
:1011800009F4B3C06091950770919607209191077B
:101190003091920790E080E08617970730F4F901CC
:1011A000E80FF91F2115310521F41092BF04EFEB70
:1011B000F4E04081FC01EA55FB4F408301968C30FE
:1011C000910551F750E040E06AE972E081E997E06B
:1011D0000E946C08E7E3F2E090E080E03191DC01EE
:1011E000AA55BB4F2C9132130AC02091A404309110
:1011F000A5042F5F3F4F3093A5042093A4040196CC
:101200008C30910559F7EBE2F2E090E080E031910B
:10121000DC01AA55BB4F2C9132130AC02091A204C5
:101220003091A3042F5F3F4F3093A3042093A20477
:1012300001968C30910559F7EFE1F2E090E080E003
:101240003191DC01AA55BB4F2C9132130AC0209179
:10125000A0043091A1042F5F3F4F3093A10420934D
:10126000A00401968C30910559F7E3E1F2E090E09B
:1012700080E03191DC01AA55BB4F2C9132130AC09A
:1012800020919E0430919F042F5F3F4F30939F0425
:1012900020939E0401968C30910559F7E7E0F2E027
:1012A00090E080E03191DC01AA55BB4F2C913213C4
:1012B0000AC020919C0430919D042F5F3F4F3093D2
:1012C0009D0420939C0401968C30910559F78091E0
:1012D000A4049091A5040C9781F581E090E090938F
:1012E000D6048093D5041092B2041092A5041092F3
:1012F000A4041092A3041092A2041092A1041092CC
:10130000A00410929F0410929E0410929D041092CB
:101310009C048091D5049091D6040F900F90DF919A
:10132000CF911F9108958091B3049091B4040196D8
:101330009093B4048093B304F7CE8091A20490916B
:10134000A3040C9719F482E090E0C9CF8091A00427
:101350009091A1040C9719F483E090E0C0CF8091A4
:101360009E0490919F040C9719F484E090E0B7CF0D
:1013700080919C0490919D040C9719F485E090E075
:10138000AECF1092D6041092D504ADCFEF92FF925B
:101390000F931F93CF93DF93CDB7DEB762970FB64E
:1013A000F894DEBF0FBECDBF8C01CB01F8011182D6
:1013B000108213821282158214824AE09E012F5FEE
:1013C0003F4F7901B9010E94D111F701019000202E
:1013D000E9F73197AF014E195F09B701C8010E94C3
:1013E0006C0862960FB6F894DEBF0FBECDBFDF91DA
:1013F000CF911F910F91FF90EF900895FB01DC01B9
:1014000011961C921E9213961C921E92129715967C
:101410001C921E9214978617970749F0608171817C
:101420006115710521F0448155810C946C08089573
:10143000FC01118210821382128215821482FB0138
:1014400001900020E9F73197AF01461B570B0C9430
:101450006C08FC0180819181009711F00C94CC12F2
:1014600008950F931F93CF93DF93CDB7DEB72C97DB
:101470000FB6F894DEBF0FBECDBF8B01A5EBB4E075
:101480002BE0289FA001299F500D112430E020E07F
:10149000F901E40FF51FE85CFD4F90819D932F5FEC
:1014A0003F4F2A303105A1F760ED77E080E090E012
:1014B0000E9412046DEC72E08FE196E00E949B06A0
:1014C00068E972E08FE196E00E949B0668EE73E0A7
:1014D00080E090E00E94120460ED72E08FE196E0FF
:1014E0000E949B0668E972E08FE196E00E949B06ED
:1014F00068EE73E080E090E00E94120465EB74E017
:10150000CE0107960E94180A6AED72E0CE0101969C
:101510000E94180ABE01695F7F4FCE0101960E94AA
:10152000590867EE72E00E9443080E94AA06CE01A5
:1015300001960E94290ACE0107960E94290A68EEA8
:1015400073E080E090E00E941204C8010E94AA06A5
:1015500068EE73E080E090E00E9412046AE18FE19F
:1015600096E00E94980168E972E08FE196E00E949F
:101570009B0668EE73E080E090E00E9412042C96D7
:101580000FB6F894DEBF0FBECDBFDF91CF911F9194
:101590000F9108951F920F920FB60F9211240BB660
:1015A0000F922F933F934F935F936F937F938F93FC
:1015B0009F93AF93BF93EF93FF9385EE94E00E94C8
:1015C0004A02FF91EF91BF91AF919F918F917F91CF
:1015D0006F915F914F913F912F910F900BBE0F90A4
:1015E0000FBE0F901F9018951F920F920FB60F927B
:1015F00011240BB60F922F933F934F935F936F93EA
:101600007F938F939F93AF93BF93EF93FF9385EE59
:1016100094E00E94CC01FF91EF91BF91AF919F9117
:101620008F917F916F915F914F913F912F910F908B
:101630000BBE0F900FBE0F901F9018951F920F9228
:101640000FB60F9211240BB60F922F933F934F9327
:101650005F936F937F938F939F93AF93BF93EF931A
:10166000FF9382E895E00E944A02FF91EF91BF91BB
:10167000AF919F918F917F916F915F914F913F912A
:101680002F910F900BBE0F900FBE0F901F901895CB
:101690001F920F920FB60F9211240BB60F922F9339
:1016A0003F934F935F936F937F938F939F93AF93EA
:1016B000BF93EF93FF9382E895E00E94CC01FF91E6
:1016C000EF91BF91AF919F918F917F916F915F91BA
:1016D0004F913F912F910F900BBE0F900FBE0F9027
:1016E0001F9018951F920F920FB60F9211240BB6F0
:1016F0000F922F933F934F935F936F937F938F93AB
:101700009F93AF93BF93EF93FF938CEB96E00E9470
:101710004A02FF91EF91BF91AF919F918F917F917D
:101720006F915F914F913F912F910F900BBE0F9052
:101730000FBE0F901F9018951F920F920FB60F9229
:1017400011240BB60F922F933F934F935F936F9398
:101750007F938F939F93AF93BF93EF93FF938CEB04
:1017600096E00E94CC01FF91EF91BF91AF919F91C4
:101770008F917F916F915F914F913F912F910F903A
:101780000BBE0F900FBE0F901F9018951F920F92D7
:101790000FB60F9211240BB60F922F933F934F93D6
:1017A0005F936F937F938F939F93AF93BF93EF93C9
:1017B000FF938FE196E00E944A02FF91EF91BF9163
:1017C000AF919F918F917F916F915F914F913F91D9
:1017D0002F910F900BBE0F900FBE0F901F9018957A
:1017E0001F920F920FB60F9211240BB60F922F93E8
:1017F0003F934F935F936F937F938F939F93AF9399
:10180000BF93EF93FF938FE196E00E94CC01FF918D
:10181000EF91BF91AF919F918F917F916F915F9168
:101820004F913F912F910F900BBE0F900FBE0F90D5
:101830001F9018951F920F920FB60F9211242F939D
:101840003F938F939F93AF93BF938091C3049091E5
:10185000C404A091C504B091C6043091C20423E031
:10186000230F2D3758F50196A11DB11D2093C204F9
:101870008093C3049093C404A093C504B093C6049A
:101880008091C7049091C804A091C904B091CA0482
:101890000196A11DB11D8093C7049093C804A09325
:1018A000C904B093CA04BF91AF919F918F913F91AA
:1018B0002F910F900FBE0F901F90189526E8230FC1
:1018C0000296A11DB11DD2CF1F920F920FB60F929B
:1018D00011240F900FBE0F901F901895CF93DF9398
:1018E000E5EEF4E01382128248EE53E060E070E02F
:1018F00044835583668377838EE792E09183808368
:1019000025E331E03587248724E331E037872687D4
:1019100020E331E0318B208B21E331E0338B228BCC
:1019200022E331E0358B248B26E331E0378B268BA5
:10193000118E128E138E148EE2E8F5E0138212825D
:1019400044835583668377839183808325ED30E0DC
:101950003587248724ED30E03787268720ED30E077
:10196000318B208B21ED30E0338B228B22ED30E068
:10197000358B248B26ED30E0378B268B118E128E23
:10198000138E148ECCEBD6E01B821A824C835D83BF
:101990006E837F83998388832DEC30E03D872C878D
:1019A0002CEC30E03F872E8728EC30E0398B288BF9
:1019B00029EC30E03B8B2A8B2AEC30E03D8B2C8BE2
:1019C0002EEC30E03F8B2E8B198E1A8E1B8E1C8EC8
:1019D000EFE1F6E0138212824483558366837783B6
:1019E0009183808385EC90E09587848784EC90E0F8
:1019F0009787868780EC90E0918B808B81EC90E0DC
:101A0000938B828B82EC90E0958B848B86EC90E0BC
:101A1000978B868B118E128E138E148EE7E9F7E06A
:101A20001382128280E992E0918380838DE0848327
:101A30008FEF85838CE086838BE087838AE08087C5
:101A400089E0818788E0828713861486158616864A
:101A5000178681E00E94E5056AE972E081E997E076
:101A60000E94180AE9E5F7E01782168211861086AF
:101A700020E430E033872287158614868FEF9FEFAE
:101A8000DC0186879787A08BB18B338B228B20E07C
:101A900031EE358B248B168A178A108E118E828F29
:101AA000938FA48FB58F15AA14AAD7ABC6ABD3ABAF
:101AB000C2ABDF91CF910895CF93DF93CDB7DEB75F
:101AC00062970FB6F894DEBF0FBECDBF789484B591
:101AD000826084BD84B5816084BD85B5826085BD2A
:101AE00085B5816085BD80916E00816080936E00B8
:101AF00010928100809181008260809381008091AA
:101B0000810081608093810080918000816080935A
:101B100080008091B10084608093B1008091B0001A
:101B200081608093B00080919100826080939100E9
:101B300080919100816080939100809190008160FC
:101B4000809390008091A10082608093A100809199
:101B5000A10081608093A1008091A00081608093AA
:101B6000A000809121018260809321018091210158
:101B70008160809321018091200181608093200108
:101B800080917A00846080937A0080917A008260EC
:101B900080937A0080917A00816080937A008091AE
:101BA0007A00806880937A001092C1008FE196E0FD
:101BB0000E94710182E00E94E5050E94DD0560E05F
:101BC00080E00E9486068AEE92E00E94C10668EEDE
:101BD00073E080E090E00E94120482E895E00E94A9
:101BE000710185EE94E00E94710161E087E10E943D
:101BF000BC0361E089E10E94BC0361E08BE10E94CB
:101C0000BC0361E08DE10E94BC0362E08FE10E94B1
:101C1000BC0362E081E20E94BC0362E083E20E94B6
:101C2000BC0362E085E20E94BC0362E085E00E94A2
:101C3000BC0338E7D32E4FEDE42E44E0F42E10928F
:101C4000D6041092D5041092E2041092E104D092CE
:101C500000020E9448040E94DD0560E080E00E94CE
:101C6000860684EF92E00E94C1060E9448040E940A
:101C70008D080E948D08892BC1F361E080E00E94ED
:101C800086066091D5047091D60487E997E00E949A
:101C900057078091D5049091D6049093E4048093E3
:101CA000E3041092D4041092D3040E94DD0560E096
:101CB00080E00E94860683E093E00E94C1060E94B5
:101CC00048040E94C6060E94C606892BC1F361E043
:101CD00080E00E9486066091D3047091D40487E965
:101CE00097E00E9457070091D3041091D4041093F9
:101CF000E2040093E10460ED77E080E090E00E9470
:101D000012048091E3049091E4048530910509F078
:101D10005EC10530110509F0FBC0D09200020E949F
:101D2000DD0560E080E00E9486068DE093E00E9481
:101D3000C10660E086E00E94860683E193E00E948F
:101D4000C10661E080E00E9486068DE193E00E947A
:101D5000C1060E947E040E947E048837D1F30E944F
:101D60007E04813309F085C0E091CD04F091CE046A
:101D70002091CF043091D0046091D1047091D204AD
:101D80004091CB045091CC04A7EDB4E08D919D918E
:101D90008130910509F00AC16F5F7F4FEA16FB069B
:101DA000A9F7F093CE04E093CD047093D20460932E
:101DB000D1045093CC044093CB043093D0042093AF
:101DC000CF040E94DD0560E080E00E94860686E286
:101DD00093E00E94C1066091D1047091D20487E91A
:101DE00097E00E94570760E088E00E9486068CE238
:101DF00093E00E94C1066091CF047091D00487E9FE
:101E000097E00E94570761E080E00E94860682E327
:101E100093E00E94C1066091CD047091CE0487E9E1
:101E200097E00E94570761E088E00E94860687E3FA
:101E300093E00E94C1066091CB047091CC0487E9C5
:101E400097E00E94570760ED77E080E090E00E9405
:101E500012041092D2041092D1041092D004109265
:101E6000CF041092CE041092CD041092CC041092A4
:101E7000CB040E947E04823309F581E08093E00464
:101E80000E94DD0560E080E00E9486066DE373E05D
:101E9000CE0101960E94180ACE0101960E945804B4
:101EA000CE0101960E94290A82E593E00E94C106B4
:101EB00060ED77E080E090E00E9412040E947E04D2
:101EC000833301F51092E0040E94DD0560E080E0BC
:101ED0000E9486066DE373E0CE0101960E94180A07
:101EE000CE0101960E945804CE0101960E94290A53
:101EF00082E693E00E94C10660ED77E080E090E02A
:101F00000E941204D09200021092D4041092D304C2
:101F100060ED77E080E090E00E9412040091E3041D
:101F20001091E4040530110509F41AC28091E1040E
:101F30009091E204059709F413C20E94480490911D
:101F4000E0048091DF04992309F4D4C1882309F4C3
:101F5000ACC1000F111FF801EB52FB4F8081918142
:101F6000892B09F046C10E94DD0560E080E00E94F7
:101F700086068AE094E00E94C10661E080E00E944B
:101F8000860682E194E00E94C1066091E3047091AC
:101F9000E40487E997E00E94570760ED77E080E06E
:101FA00090E00E9412040E94D90249CE823091052D
:101FB00019F42F5F3F4FF2CE8330910511F4319623
:101FC000EDCE049709F0EACE4F5F5F4FE7CE0817DA
:101FD000190721F00530110509F09ACFD0920002BF
:101FE0000E94DD0560E080E00E94860681E793E0C4
:101FF0000E94C10660E088E00E94860687E793E0C1
:102000000E94C10661E080E00E9486068EE793E0B0
:102010000E94C10661E088E00E94860684E893E0A1
:102020000E94C1060E947E040E947E048837D1F37C
:1020300080910002E091E304F091E404EE0FFF1FB1
:10204000EB52FB4F082E000C990BC09791838083B5
:102050000E94DD0560E080E00E9486068BE893E048
:102060000E94C10661E080E00E9486066091000245
:1020700087E997E00E94980161E085E00E9486066A
:10208000E091E304F091E404EE0FFF1FEB52FB4FED
:102090006081718187E997E00E94570707ED14E09E
:1020A000F801619171918F018FE196E00E945707CD
:1020B00068E972E08FE196E00E949B06F4E00F3D34
:1020C0001F0771F78091E1049091E204059709F0F0
:1020D00041C06091E3047091E404CE0107960E9430
:1020E000C6096EE973E0CE010D960E94180ABE0182
:1020F000695F7F4FCE010D960E94590866EA73E032
:102100000E944308BC01CE0101960E94FE09CE0147
:1021100001960E945804CE0101960E94290ACE0120
:102120000D960E94290ACE0107960E94290A62ECA8
:1021300073E0CE0101960E94180ABE016F5F7F4FC7
:102140008091E3049091E4040E94310ACE0101964B
:102150000E94290A6091E1047091E2048091E304F5
:102160009091E40468177907E9F5CE0107960E947B
:10217000C6096CED73E0CE010D960E94180ABE01EF
:10218000695F7F4FCE010D960E94590865EE73E09E
:102190000E944308BC01CE0101960E94FE09CE01B7
:1021A00001960E945804CE0101960E94290ACE0190
:1021B0000D960E94290ACE0107960E94290A68EF0F
:1021C00073E0CE0101960E94180ABE016F5F7F4F37
:1021D0008091E3049091E4040E94310ACE010196BB
:1021E0000E94290A60ED77E080E090E00E941204EE
:1021F0008FCE0E94DD0560E080E00E9486068AE1C5
:1022000094E00E94C10661E080E00E94860682E1BF
:1022100094E00E94C1066091E3047091E40487E9B0
:1022200097E00E9457076091E3047091E404CE01A7
:1022300007960E94C6096CED73E0CE010D960E94D0
:10224000180ABE01695F7F4FCE010D960E945908A2
:1022500068E274E00E944308BC01CE0101960E942E
:10226000FE09CE0101960E945804CE0101960E94FB
:10227000290ACE010D960E94290ACE0107960E94D6
:10228000290A6AE174E0CE0101960E94180ABE0193
:102290006F5F7F4F8091E3049091E4040E94310AC4
:1022A000CE0101960E94290A78CE0E94DD0560E0E9
:1022B00080E00E94860668E374E0CE0101960E94E9
:1022C000180ACE0101960E945804CE0101960E9480
:1022D000290A60E080E00E9486068AE494E00E9479
:1022E000C10661E080E00E94860686E594E00E94D7
:1022F000C10653CE811117C00E94DD0568E374E06A
:10230000CE0101960E94180ACE0101960E9458043F
:10231000CE0101960E94290A60E080E00E948606B4
:1023200082E694E0DCCF0E94DD0560E080E00E9460
:10233000860682E694E00E94C10661E080E00E9489
:10234000860680E794E00E94C10668E374E0CE014F
:1023500001960E94180ACE0101960E945804A0CF4F
:102360000E94DD0560E080E00E9486068CE794E034
:102370000E94C10661E080E00E94860682E194E04E
:102380000E94C1066091E3047091E40487E997E03C
:102390000E94570767E874E0DACF81E997E00C9470
:1023A000290ABB274A3031F4992322F4BDE29095E3
:1023B00081959F4F0C94DD11BB27FB015527AA2760
:1023C000880F991FAA1FA41710F0A41B83955051C2
:1023D000B9F7A05DAA3308F0A95DA193009779F73A
:1023E000B111B1931192CB010C94F611DC01FC01F7
:1023F000672F71917723E1F7329704C07C916D9339
:1024000070836291AE17BF07C8F30895A1E21A2E38
:10241000AA1BBB1BFD010DC0AA1FBB1FEE1FFF1F88
:10242000A217B307E407F50720F0A21BB30BE40BD8
:10243000F50B661F771F881F991F1A9469F760951F
:102440007095809590959B01AC01BD01CF010895D9
:10245000EE0FFF1F881F8BBF0790F691E02D199498
:102460000F931F93CF93DF938230910510F482E096
:1024700090E0E091B107F091B20730E020E0B0E0E9
:10248000A0E0309799F42115310509F44AC0281BC2
:10249000390B24303105D8F58A819B81611571058E
:1024A00089F1FB0193838283FE0111C04081518138
:1024B0000281138148175907E0F04817590799F42A
:1024C000109761F012960C93129713961C93329604
:1024D000CF01DF91CF911F910F9108950093B10724
:1024E0001093B207F4CF2115310551F0421753076D
:1024F00038F0A901DB019A01BD01DF01F801C1CF6C
:10250000EF01F9CF9093B2078093B107CDCFFE01D1
:10251000E20FF31F8193919322503109398328836D
:10252000D7CF2091AF073091B007232B41F42091F2
:102530000302309104023093B0072093AF0720913B
:102540000102309102022115310541F42DB73EB749
:102550004091050250910602241B350BE091AF0714
:10256000F091B007E217F307A0F42E1B3F0B2817DA
:10257000390778F0AC014E5F5F4F2417350748F0FC
:102580004E0F5F1F5093B0074093AF078193919315
:102590009FCFF0E0E0E09CCFCF93DF930097E9F08E
:1025A000FC01329713821282A091B107B091B20759
:1025B000ED0130E020E01097A1F420813181820FFD
:1025C000931F2091AF073091B0072817390709F002
:1025D00061C0F093B007E093AF07DF91CF9108950A
:1025E000EA01CE17DF07E8F54A815B819E014115BC
:1025F0005105B1F7E901FB83EA8349915991C40F71
:10260000D51FEC17FD0761F4808191810296840F3C
:10261000951FE90199838883828193819B838A83B3
:10262000F0E0E0E012968D919C9113970097B9F538
:102630002D913C911197CD010296820F931F20910D
:10264000AF073091B0072817390739F6309751F5A1
:102650001092B2071092B107B093B007A093AF07E2
:10266000BCCFD383C28340815181840F951FC8178B
:10267000D90761F44E5F5F4F88819981480F591FD8
:10268000518340838A819B81938382832115310505
:1026900009F0B0CFF093B207E093B1079ECFFD01F0
:1026A000DC01C0CF13821282D7CF4F925F926F921C
:1026B0007F928F929F92AF92BF92CF92DF92EF92D2
:1026C000FF920F931F93CF93DF938C01009799F4A0
:1026D000CB01DF91CF911F910F91FF90EF90DF9091
:1026E000CF90BF90AF909F908F907F906F905F90B2
:1026F0004F900C943012FC01E60FF71F9C01225002
:102700003109E217F30708F4AEC0D901CD91DC918D
:102710001197C617D70720F1C530D10578F0CE0143
:1027200004978617970750F0C61BD70B2297C193C3
:10273000D1936D937C93CF010E94CC12C801DF919D
:10274000CF911F910F91FF90EF90DF90CF90BF90AE
:10275000AF909F908F907F906F905F904F90089573
:102760005B01AC1ABD0A4C018C0E9D1EA091B107F5
:10277000B091B207512C412CF12CE12C109731F57E
:102780008091AF079091B0078815990509F05CC05A
:102790004616570608F058C0809101029091020237
:1027A000009741F48DB79EB7409105025091060203
:1027B000841B950BE817F90708F055C0F093B00794
:1027C000E093AF07F90171836083B8CF8D919C913D
:1027D000119712966C90129713967C901397A815E8
:1027E000B90559F56C0142E0C40ED11CCA14DB04D2
:1027F00020F1AC014A195B09DA011296159780F0B5
:102800006282738251834083D9016D937C93E1147A
:10281000F10471F0D7011396FC93EE9312978ECFCB
:1028200022968C0F9D1FF90191838083F301EFCFD6
:10283000F093B207E093B10781CF4816590608F428
:102840002C017D01D3019ACFCB010E9430127C0173
:10285000009749F0AE01B8010E943614C8010E94E9
:10286000CC1287016BCF10E000E068CFFB01DC01E8
:1028700002C001900D9241505040D8F70895FB01DD
:10288000DC0101900D920020E1F7089511E0CDE305
:10289000D1E000E006C0802FFE010E9428122196A0
:1028A000011DCE33D10780E00807A9F7F894FFCFC8
:1028B000780000B307800038373030383435353091
:1028C0003835453837303038343034443044373890
:1028D0003730303834344537333345383730303992
:1028E0003036343144364538373030383534364375
:1028F0004538413831383939383833343700383091
:102900003939353532363737003831383939383892
:1029100033343700383138393938383334370038C0
:1029200031383939383833343700000000006C0250
:102930009F01E501B9021602F4010802000000003F
:1029400095069F01450444040D0A00464143452075
:1029500049443A3100464143452049443A32004611
:102960004143452049443A330046414345204944C8
:102970003A3400464143452049443A350041540029
:1029800041542B434D47463D310041542B434D4765
:10299000533D222B393100220D0020564F54494E11
:1029A00047372000504C41434520564F5445522054
:1029B00049440053484F5720464143450031205475
:1029C0004F54003220504C2D535452540033205059
:1029D0004C2D53545000444D4B3A200041444D4B34
:1029E0003A00424A503A004E4F54413A002A504F62
:1029F0004C4C494E475F535441525445445F504FED
:102A00002300504F4C4C494E47205354415254459B
:102A10004400504F4C4C494E472053544F5045446E
:102A2000003120444D4B00322041444D4B003320B7
:102A3000424A500034204E4F544100564F544544B2
:102A4000205355434345535346554C4C59002A5047
:102A50004552534F4E00564F5445445F53554343E0
:102A600045535346554C4C595F504F5F4155544860
:102A70002300564F5445445F5355434553534655E1
:102A80004C4C595F504F5F41555448002A504552B5
:102A9000534F4E5F00564F5445445F535543455383
:102AA0005346554C4C592300564F544544205355DA
:102AB0004345535346554C4C590077656C636F6DD5
:102AC0006500504552534F4E3A00414C52454144E7
:102AD0005920564F54454400414C52454144595F9A
:102AE000564F5454454423002A504F4C4C494E47AE
:102AF0005F53544F505045442300424F4F54482099
:102B0000535441525400494F542053544F50504550
:102B10004400424F4F54482053544F5050454400B6
:102B2000494F5420535441525445440057454C4357
:102B30004F4D4520504F002A502E4F2E4C4F4747A7
:082B400045445F494E230000EB
:020000040003F7
:10E000000D9489F10D94B2F10D94B2F10D94B2F129
:10E010000D94B2F10D94B2F10D94B2F10D94B2F1F0
:10E020000D94B2F10D94B2F10D94B2F10D94B2F1E0
:10E030000D94B2F10D94B2F10D94B2F10D94B2F1D0
:10E040000D94B2F10D94B2F10D94B2F10D94B2F1C0
:10E050000D94B2F10D94B2F10D94B2F10D94B2F1B0
:10E060000D94B2F10D94B2F10D94B2F10D94B2F1A0
:10E070000D94B2F10D94B2F10D94B2F10D94B2F190
:10E080000D94B2F10D94B2F10D94B2F10D94B2F180
:10E090000D94B2F10D94B2F10D94B2F10D94B2F170
:10E0A0000D94B2F10D94B2F10D94B2F10D94B2F160
:10E0B0000D94B2F10D94B2F10D94B2F10D94B2F150
:10E0C0000D94B2F10D94B2F10D94B2F10D94B2F140
:10E0D0000D94B2F10D94B2F10D94B2F10D94B2F130
:10E0E0000D94B2F141546D656761323536300041AF
:10E0F000726475696E6F206578706C6F72657220DE
:10E1000073746B3530305632206279204D4C530099
:10E11000426F6F746C6F616465723E004875683F52
:10E1200000436F6D70696C6564206F6E203D200048
:10E130004350552054797065202020203D20005FF9
:10E140005F4156525F415243485F5F3D2000415658
:10E1500052204C696243205665723D20004743437C
:10E160002056657273696F6E203D20004350552024
:10E1700049442020202020203D20004C6F7720663D
:10E18000757365202020203D20004869676820665F
:10E190007573652020203D200045787420667573D6
:10E1A00065202020203D20004C6F636B2066757336
:10E1B000652020203D20004D617220203720323024
:10E1C000313300312E362E3800342E332E350056A2
:10E1D00023202020414444522020206F7020636F70
:10E1E00064652020202020696E73747275637469E1
:10E1F0006F6E2061646472202020496E74657272B3
:10E20000757074006E6F20766563746F7200726A49
:10E210006D702020006A6D70200057686174207056
:10E220006F72743A00506F7274206E6F7420737541
:10E2300070706F72746564004D7573742062652030
:10E2400061206C6574746572002000577269747483
:10E25000696E672045450052656164696E672045B7
:10E26000450045452065727220636E743D00504F35
:10E27000525400303D5A65726F2061646472003FF1
:10E280003D43505520737461747300403D454550C3
:10E29000524F4D207465737400423D426C696E6B41
:10E2A000204C454400453D44756D70204545505215
:10E2B0004F4D00463D44756D7020464C415348001B
:10E2C000483D48656C70004C3D4C69737420492F83
:10E2D0004F20506F72747300513D51756974005234
:10E2E0003D44756D702052414D00563D73686F7707
:10E2F00020696E7465727275707420566563746FF0
:10E30000727300593D506F727420626C696E6B00BD
:10E310002A0011241FBECFEFD1E2DEBFCDBF01E046
:10E320000CBF12E0A0E0B2E0EEE1FDEF03E00BBFB6
:10E3300002C007900D92A030B107D9F712E0A0E01B
:10E34000B2E001C01D92AE30B107E1F70F9460F367
:10E350000D948DFE01E20EBF0FEF0DBF11241FBE05
:10E360000D9460F30D9400F020E030E040ED57E0B4
:10E3700005C0FA013197F1F72F5F3F4F2817390792
:10E38000C0F308959C01260F311DC901A0E0B0E043
:10E390002F5F3F4FABBFFC018791882361F08093D3
:10E3A000C6008091C00086FFFCCF8091C0008064D1
:10E3B0008093C000EACF08958DE08093C6008091DD
:10E3C000C00086FFFCCF8091C00080648093C000B5
:10E3D0008AE08093C6008091C00086FFFCCF8091C8
:10E3E000C00080648093C00008950F94C2F10F9420
:10E3F000DCF10895FC019081992359F09093C600B7
:10E400008091C00086FFFCCF8091C0008064809323
:10E41000C0003196992379F70895282F982F929567
:10E420009F70892F805D8A3308F0895F8093C600D2
:10E430008091C00086FFFCCF8091C00080648093F3
:10E44000C000822F8F70982F905D9A3308F0995FEB
:10E450009093C6008091C00086FFFCCF8091C000E1
:10E4600080648093C00008959C01FB01853691056E
:10E470001CF46330710594F0C90164E670E00F94F8
:10E480002EFE605D7F4F6093C6008091C00086FFC6
:10E49000FCCF8091C00080648093C0002B30310598
:10E4A00014F43297B4F0C90164E670E00F942EFEC4
:10E4B0006AE070E00F942EFE605D7F4F6093C600AF
:10E4C0008091C00086FFFCCF8091C0008064809363
:10E4D000C000C9016AE070E00F942EFEC0968093E0
:10E4E000C6008091C00086FFFCCF8091C000806490
:10E4F0008093C00008951F93182F8EE692EE60E07F
:10E500000F94C2F11093C6008091C00086FFFCCF2B
:10E510008091C00080648093C0000F94DCF11F9153
:10E5200008952F923F924F925F926F927F928F92B7
:10E530009F92AF92BF92CF92DF92EF92FF920F9392
:10E540001F93DF93CF93CDB7DEB762970FB6F894E2
:10E55000DEBF0FBECDBF382E622ECA01DB015C01CB
:10E560006D01772420E2222E2E010894411C511CBB
:10E570008BC081E0A81680E0B80681E0C80680E084
:10E58000D80628F0C601AA27BB270F940DF2BB2797
:10E59000AD2D9C2D8B2D0F940DF28A2D0F940DF225
:10E5A0002092C6008091C00086FFFCCF8091C00001
:10E5B00080648093C0009DE29093C6008091C0006B
:10E5C00086FFFCCF8091C00080648093C0002092C1
:10E5D000C6008091C00086FFFCCF8091C00080649F
:10E5E0008093C00019828601750188249924A1E0D6
:10E5F0003A1651F03A1620F0B2E03B1661F409C029
:10E600000BBFF701779007C0C7010F9477FE782EF4
:10E6100002C0F7017080872D0F940DF22092C60082
:10E620008091C00086FFFCCF8091C0008064809301
:10E63000C000872D8052F401EF70F0708F3520F408
:10E64000E40DF51D708204C0E40DF51D8EE280839B
:10E650000894E11CF11C011D111D0894811C911CE2
:10E6600090E18916910409F0C2CF80E190E0A0E02A
:10E67000B0E0A80EB91ECA1EDB1E198AC2010F9493
:10E68000FAF10F94DCF16A94662009F072CF629679
:10E690000FB6F894DEBF0FBECDBFCF91DF911F91B3
:10E6A0000F91FF90EF90DF90CF90BF90AF909F9031
:10E6B0008F907F906F905F904F903F902F90089534
:10E6C0002F923F924F925F926F927F928F929F9282
:10E6D000AF92BF92CF92DF92EF92FF920F931F9370
:10E6E000DF93CF93CDB7DEB7CD53D1400FB6F894BB
:10E6F000DEBF0FBECDBF01E20EBF0FEF0DBF94B75F
:10E70000F894A89514BE80916000886180936000A1
:10E7100010926000789493FF05C0E0910002F091A0
:10E7200001021995279A2F9A8091C00082608093E8
:10E73000C00080E18093C40088E18093C1000000A4
:10E74000EE24FF24870144E0A42EB12CCC24DD2448
:10E7500024C0C5010197F1F70894E11CF11C011DCB
:10E76000111D21E2E2162EE4F20620E0020720E06D
:10E77000120718F031E0C32ED12CC801B70127ECE5
:10E780003BE140E050E00F9441FE611571058105C9
:10E79000910519F485B1805885B98091C00087FD35
:10E7A00003C0C114D104A9F2A6014F5F5F4FC25E3E
:10E7B000DE4F59834883CE51D140C25EDE4F8881FF
:10E7C0009981CE51D140019711F00D9410FEC05D9A
:10E7D000DE4F19821882C053D14060E0C15DDE4F28
:10E7E0001882CF52D14088249924C35DDE4F19820C
:10E7F0001882CD52D140C05EDE4F188219821A8233
:10E800001B82C052D140CE5CDE4F188219821A8220
:10E810001B82C253D140EE24FF2487010BBFF701B6
:10E8200007911691C45CDE4F19830883CC53D14005
:10E830000D940BFEC25EDE4F28813981CE51D1404E
:10E840002130310509F52091C600C25EDE4F1982E4
:10E850001882CE51D14022C02F5F3F4F4F4F5F4FA4
:10E86000213082E138078AE7480780E0580780F0C6
:10E87000C45CDE4FE881F981CC53D140EF5FFF4F9C
:10E8800019F0EE27FF27099420E030E040E050E047
:10E890008091C00087FFE0CF2091C600C35DDE4FAE
:10E8A00048815981CD52D1404F5F5F4FC35DDE4FEC
:10E8B00059834883CD52D140213209F063C64A3092
:10E8C000510508F05FC60894811C911C53E0851621
:10E8D000910409F059C600E010E018C081E280936D
:10E8E000C6008091C00086FFFCCF8091C00080648C
:10E8F0008093C0002F5F3F4F2931310579F70F9486
:10E90000DCF10F5F1F4F0530110519F020E030E0FA
:10E91000E5CF10920A0210920B0210920C02109294
:10E920000D02109206021092070210920802109235
:10E930000902109202021092030210920402109235
:10E9400005028FEE90EE60E00F94F5F180E191EE1C
:10E9500060E00F94C2F18091C00087FFFCCF9091DE
:10E96000C600903608F09F759032B8F09093C600BC
:10E970008091C00086FFFCCF8091C00080648093AE
:10E98000C000A0E2A093C6008091C00086FFFCCF2B
:10E990008091C00080648093C000983409F4D7C18E
:10E9A0009934B8F4923409F459C1933458F490333B
:10E9B00019F1903308F4E3C59F33A1F1903409F0C5
:10E9C000DEC5BDC0953409F470C1963409F0D7C5D1
:10E9D00098C1923509F42BC2933538F49C3409F46C
:10E9E000F5C1913509F0CBC518C2963509F445C279
:10E9F000993509F0C4C567C483E792EE62E00F94CD
:10EA0000F5F110920602109207021092080210927D
:10EA1000090210920A0210920B0210920C0210923C
:10EA20000D0213C18FE792EE62E00F94F5F18FEEC5
:10EA300090EE60E00F94F5F181E291EE60E00F94CA
:10EA4000C2F187EB91EE60E00F94F5F180E391EE77
:10EA500060E00F94C2F184EE90EE60E00F94F5F167
:10EA60008FE391EE60E00F94C2F186E090E061E008
:10EA700070E00F9434F20F94DCF18DE591EE60E0DC
:10EA80000F94C2F189EC91EE60E00F94F5F18EE401
:10EA900091EE60E00F94C2F183EC91EE60E00F9490
:10EAA000F5F18CE691EE60E00F94C2F18EE10F94E7
:10EAB0000DF288E90F940DF281E00F940DF20F949E
:10EAC000DCF18BE791EE60E00F94C2F119E0E0E039
:10EAD000F0E010935700E4918E2F0F940DF20F94F5
:10EAE000DCF18AE891EE60E00F94C2F1E3E0F0E03F
:10EAF00010935700E4918E2F0F940DF20F94DCF1D8
:10EB000089E991EE60E00F94C2F1E2E0F0E0109349
:10EB10005700E4918E2F0F940DF20F94DCF188EAE8
:10EB200091EE60E00F94C2F1E1E0F0E01093570045
:10EB30001491812F0F940DF20F94DCF107CF8BE825
:10EB400092EE62E00F94F5F18BE492EE60E00F94A8
:10EB5000F5F10F94DCF100E010E019C0C8016F2D51
:10EB60000F947FFEFF2031F489E492EE60E00F9471
:10EB7000C2F10BC0F092C6008091C00086FFFCCFAE
:10EB80008091C00080648093C0000F5F1F4FC80158
:10EB900081519F41A0E0B0E0ABBFFC01F790BAE229
:10EBA000FB1621F0E2E000301E07C1F60F94DCF105
:10EBB0000F94DCF187E592EE60E00F94F5F10F948D
:10EBC000DCF1CC24DD2400E010E01EC0C8010F946D
:10EBD00077FEF82E882331F489E492EE60E00F94FA
:10EBE000C2F10BC08093C6008091C00086FFFCCFAD
:10EBF0008091C00080648093C000FE1419F00894D6
:10EC0000C11CD11C0F5F1F4FC80181519F41A0E063
:10EC1000B0E0ABBFFC01E790FAE2EF1621F022E092
:10EC20000030120799F60F94DCF10F94DCF182E6C4
:10EC300092EE60E00F94C2F1C60161E070E00F94C3
:10EC400034F20F94DCF10F94DCF110920202109276
:10EC50000302109204021092050278CE89E992EE26
:10EC600062E00F94F5F1279A2F9A16C02F9880E052
:10EC700090E0E0EDF7E03197F1F7019684369105E9
:10EC8000C1F72F9A80E090E0E0EDF7E03197F1F7DF
:10EC9000019684369105C1F78091C00087FFE6CFC9
:10ECA0008091C00087FFFCCF64C485EA92EE62E0E9
:10ECB0000F94F5F140910202509103026091040219
:10ECC0007091050281E020E10F9491F2809102029F
:10ECD00090910302A0910402B091050280509F4FD1
:10ECE000AF4FBF4F8093020290930302A0930402A0
:10ECF000B093050280509041A040B04008F426CE69
:10ED0000A4CF83EB92EE62E00F94F5F140910602FE
:10ED100050910702609108027091090280E020E1A1
:10ED20000F9491F28091060290910702A09108023F
:10ED3000B091090280509F4FAF4FBF4F80930602A2
:10ED400090930702A0930802B0930902FFCD80ECD4
:10ED500092EE62E00F94F5F183E792EE60E00F949B
:10ED6000F5F18FE792EE60E00F94F5F18BE892EE0B
:10ED700060E00F94F5F189E992EE60E00F94F5F10F
:10ED800085EA92EE60E00F94F5F183EB92EE60E09D
:10ED90000F94F5F180EC92EE60E00F94F5F187ECC2
:10EDA00092EE60E00F94F5F188ED92EE60E00F9442
:10EDB000F5F18FED92EE60E00F94F5F18AEE92EEB0
:10EDC00060E00F94F5F183E093EEBDCD87EC92EE19
:10EDD00062E00F94F5F181E40F947BF282E40F94EA
:10EDE0007BF283E40F947BF284E40F947BF285E45E
:10EDF0000F947BF286E40F947BF287E40F947BF20E
:10EE000088E40F947BF28AE40F947BF28BE40F94F6
:10EE10007BF28CE40F947BF299CD88ED92EE62E068
:10EE20000F94F5F1772473948824992409C48FED05
:10EE300092EE62E00F94F5F140910A0250910B02BC
:10EE400060910C0270910D0282E020E10F9491F22A
:10EE500080910A0290910B02A0910C02B0910D02D8
:10EE600080509F4FAF4FBF4F80930A0290930B0289
:10EE7000A0930C02B0930D0269CD8AEE92EE62E08F
:10EE80000F94F5F184EE90EE60E00F94F5F18FECC5
:10EE900091EE60E00F94F5F1662477244301CC5D98
:10EEA000DE4F19821882C452D140D401C301B695F5
:10EEB000A79597958795CA5DDE4F88839983AA8326
:10EEC000BB83C652D140CC5DDE4FA881B981C4520C
:10EED000D1401196CC5DDE4FB983A883C452D14096
:10EEE000CD0162E070E00F9434F2B0E2B093C6005E
:10EEF0008091C00086FFFCCF8091C0008064809329
:10EF0000C000EDE2E093C6008091C00086FFFCCF18
:10EF10008091C00080648093C000F0E2F093C6004E
:10EF20008091C00086FFFCCF8091C00080648093F8
:10EF3000C000CA5DDE4FE880F9800A811B81C6529D
:10EF4000D140BB27A12F902F8F2D0F940DF2CA5DBA
:10EF5000DE4F8881C652D1400F940DF2B0E2FB2EF5
:10EF6000F092C6008091C00086FFFCCF8091C00067
:10EF700080648093C0000DE30093C6008091C000C0
:10EF800086FFFCCF8091C00080648093C00010E2B7
:10EF90001093C6008091C00086FFFCCF8091C00016
:10EFA00080648093C0008BBEF3012791C65DDE4F65
:10EFB0002883CA52D140A22EBB24CC24DD2408943D
:10EFC000611C711C811C911C8BBEF3018791282E42
:10EFD0003324442455240894611C711C811C911C09
:10EFE0008BBEF3013791C55DDE4F3883CB52D140E4
:10EFF0000894611C711C811C911C8BBEF30147910C
:10F00000C45DDE4F4883CC52D140ADEFEA2EAFEF66
:10F01000FA2EAFEF0A2FAFEF1A2F6E0C7F1C801E57
:10F02000911E142D032DF22CEE24EA0CFB1C0C1D5A
:10F030001D1D0F940DF220E22093C6008091C000A8
:10F0400086FFFCCF8091C00080648093C000C65DC5
:10F05000DE4F8881CA52D1400F940DF230E23093D6
:10F06000C6008091C00086FFFCCF8091C000806404
:10F070008093C000C45DDE4F8881CC52D1400F9494
:10F080000DF240E24093C6008091C00086FFFCCFA5
:10F090008091C00080648093C000C55DDE4F888190
:10F0A000CB52D1400F940DF250E25093C6008091A4
:10F0B000C00086FFFCCF8091C00080648093C000B8
:10F0C0008FEFE8168FEFF80680E0080780E018075A
:10F0D00031F484E092EE60E00F94C2F1DFC0D80119
:10F0E000C7018070907CA070B0708050904CA040A0
:10F0F000B040D1F52FEF3FE340E050E0E222F322B1
:10F1000004231523CA5DDE4FA880B980CA80DB8046
:10F11000C652D140AE0CBF1CC01ED11EAA0CBB1CD7
:10F12000CC1CDD1C8EE092EE60E00F94C2F1BB2798
:10F13000A12F902F8F2D0F940DF28E2D0F940DF285
:10F1400030E23093C6008091C00086FFFCCF8091F2
:10F15000C00080648093C0004EE34093C60080915D
:10F16000C00086FFFCCF87C08EE09EEFA0E0B0E03D
:10F17000E822F9220A231B239CE0E91694E9F90608
:10F1800090E0090790E0190709F088C0C45DDE4FE0
:10F19000A881CC52D140EA2EFF2400E010E0102FCD
:10F1A0000F2DFE2CEE24C55DDE4FB881CB52D14031
:10F1B000EB0EF11C011D111DD601C501817090706F
:10F1C000A070B070DC0199278827E80EF91E0A1F8D
:10F1D0001B1F20EF30E040E050E0A222B322C42207
:10F1E000D52241E1AA0CBB1CCC1CDD1C4A95D1F7F1
:10F1F000EA0CFB1C0C1D1D1D81E090E0A0E0B0E0BE
:10F20000282239224A225B2235E1220C331C441C7D
:10F21000551C3A95D1F7E20CF31C041D151D57013E
:10F220006801AA0CBB1CCC1CDD1C85E192EE60E0E1
:10F230000F94C2F1C801AA27BB270F940DF2BB2778
:10F24000A12F902F8F2D0F940DF28E2D0F940DF274
:10F2500090E29093C6008091C00086FFFCCF809121
:10F26000C00080648093C000AEE3A093C60080918C
:10F27000C00086FFFCCF8091C00080648093C000F6
:10F28000C601AA27BB270F940DF2BB27AD2D9C2DDD
:10F290008B2D0F940DF28A2D0F940DF20F94DCF14B
:10F2A000CC5DDE4FE881F981C452D140F99709F471
:10F2B0004DCBF4E0EF2EF12C012D112D6E0C7F1CA7
:10F2C000801E911EF2CD83E093EE62E00F94F5F183
:10F2D0008AE192EE60E00F94C2F18091C00087FF56
:10F2E000FCCF1091C6001F751093C6008091C0001E
:10F2F00086FFFCCF8091C00080648093C0000F9493
:10F30000DCF1812F81548A3108F036C1163409F4BA
:10F3100095C0173490F4133409F44EC0143430F40B
:10F320001134F1F0123409F01DC130C0143409F465
:10F3300059C0153409F016C16BC01A3409F4C4C0A1
:10F340001B3438F4173409F48FC0183409F00AC19B
:10F35000A1C01B3409F4D2C01C3409F003C1E8C0B9
:10F360008FEF81B90DC082B1809582B980E090E0C5
:10F37000E0EDF7E03197F1F70196883C9105C1F790
:10F380008091C00087FFEFCF12B8EFC08FEF84B934
:10F390000DC085B1809585B980E090E0E0EDF7E0A3
:10F3A0003197F1F70196883C9105C1F78091C00033
:10F3B00087FFEFCF15B8D9C08FEF87B90DC088B1DF
:10F3C000809588B980E090E0E0EDF7E03197F1F7C3
:10F3D0000196883C9105C1F78091C00087FFEFCF6F
:10F3E00018B8C3C08FEF8AB90DC08BB180958BB9A7
:10F3F00080E090E0E0EDF7E03197F1F70196883C8E
:10F400009105C1F78091C00087FFEFCF1BB8ADC059
:10F410008FEF8DB90DC08EB180958EB980E090E0F0
:10F42000E0EDF7E03197F1F70196883C9105C1F7DF
:10F430008091C00087FFEFCF1EB897C08FEF80BBD1
:10F440000DC081B3809581BB80E090E0E0EDF7E0F6
:10F450003197F1F70196883C9105C1F78091C00082
:10F4600087FFEFCF11BA81C08FEF83BB0DC084B38C
:10F47000809584BB80E090E0E0EDF7E03197F1F714
:10F480000196883C9105C1F78091C00087FFEFCFBE
:10F4900014BA6BC08FEF809301010FC080910201FD
:10F4A00080958093020180E090E0E0EDF7E03197F5
:10F4B000F1F70196883C9105C1F78091C00087FF64
:10F4C000EDCF1092020151C08FEF809304010FC065
:10F4D0008091050180958093050180E090E0E0ED4A
:10F4E000F7E03197F1F70196883C9105C1F78091DB
:10F4F000C00087FFEDCF1092050137C08FEF8093DA
:10F5000007010FC08091080180958093080180E079
:10F5100090E0E0EDF7E03197F1F70196883C910536
:10F52000C1F78091C00087FFEDCF109208011DC088
:10F530008FEF80930A010FC080910B01809580931B
:10F540000B0180E090E0E0EDF7E03197F1F70196F4
:10F55000883C9105C1F78091C00087FFEDCF1092E4
:10F560000B0103C085E292EEEEC98091C00087FFD7
:10F57000FCCF8091C600EAC988E392EEE4C98CE131
:10F5800091EEE1C988249924933011F1943028F444
:10F59000913089F09230B8F408C0953061F195301F
:10F5A000F0F0963009F048C043C02B3109F042C951
:10F5B00091E06BE13FC96227C15DDE4F2883CF52E6
:10F5C000D14092E037C9B22FA0E0622793E032C960
:10F5D000822F90E0A82BB92B622794E02BC92E3004
:10F5E00009F039C3622795E0C05DDE4F19821882A9
:10F5F000C053D1401FC9E1E0F0E0EC0FFD1FC05D3A
:10F60000DE4F08811981C053D140E00FF11F2083E4
:10F610000F5F1F4FC05DDE4F19830883C053D14079
:10F6200062270A171B0709F005C9D80196E002C92D
:10F63000261709F010C303C0973009F0FBC87724E0
:10F640009981933109F412C19431C8F4963009F4C8
:10F65000D8C0973050F4923009F406C1933009F4C1
:10F660006DC0913009F059C253C0913109F477C08F
:10F67000923108F0BBC0903109F04FC2F5C098310B
:10F6800009F487C0993150F4953109F4EFC09531F0
:10F6900008F4C6C1963109F040C2C2C19A3109F4DA
:10F6A0006CC09A3108F491C09B3109F45BC09D3164
:10F6B00009F033C29D81903359F48F81882311F46E
:10F6C0009EE11CC0813011F091E018C098E916C08D
:10F6D000892F807591F0903539F4E0E0F0E089E011
:10F6E0008093570094910AC0983539F4E3E0F0E034
:10F6F00089E080935700949101C090E01A821B82A8
:10F700008D818C831D829E831F8227E030E009C299
:10F710001A8288E08B8381E48C8386E58D8382E581
:10F720008E8389E48F8383E5888780E589878FE5E9
:10F730008A8782E38B872BE030E0F3C18A818139AD
:10F7400041F0823941F0803911F48FE005C080E04A
:10F7500003C082E001C08AE01A828B8344C0772410
:10F76000739482C08D81882311F48EE12CC0813086
:10F7700011F081E028C088E926C01A82E1E0F0E0BB
:10F7800089E08093570084918B831C8224E030E0D1
:10F79000C8C18B81803589F48C81883039F4E2E0EE
:10F7A000F0E089E08093570084910DC0E0E0F0E044
:10F7B00089E080935700849106C0E3E0F0E089E09F
:10F7C0008093570084911A82DFCF8D81836C99E0FA
:10F7D000E1E0F0E0082E90935700E89507B600FCB2
:10F7E000FDCF1A821B8223E030E09BC180EC8A832C
:10F7F000CE5CDE4F188219821A821B82C253D1401E
:10F800008EC18A8190E0A0E0B0E0582F44273327D2
:10F8100022278B8190E0A0E0B0E0DC0199278827C7
:10F82000282B392B4A2B5B2B8D8190E0A0E0B0E098
:10F83000282B392B4A2B5B2B8C8190E0A0E0B0E089
:10F84000BA2FA92F982F8827282B392B4A2B5B2BCF
:10F85000220F331F441F551FC05EDE4F288339839C
:10F860004A835B83C052D1401A8259C13A81C95C34
:10F87000DE4F3883C753D140CA5CDE4F1882C6536F
:10F88000D1408B81C82EDD24CA5CDE4F488159816E
:10F89000C653D140C42AD52A933109F082C0CE5C28
:10F8A000DE4F88819981AA81BB81C253D1408050AB
:10F8B000904CA340B04030F583E0CE5CDE4FE88052
:10F8C000F9800A811B81C253D140F70100935B008C
:10F8D00080935700E89507B600FCFDCFCE5CDE4F65
:10F8E000088119812A813B81C253D14000501F4FAA
:10F8F0002F4F3F4FCE5CDE4F088319832A833B8313
:10F90000C253D140C05EDE4F488159816A817B81FC
:10F91000C052D140DE011B9631E08C9111962C91A2
:10F9200011971296C75CDE4F2883C953D140C85C3B
:10F93000DE4F1882C853D14090E0C85CDE4FE881AA
:10F94000F981C853D1408E2B9F2B0C01FA01609393
:10F950005B0030935700E89511244E5F5F4F6F4F67
:10F960007F4F0EEFE02E0FEFF02ECE0CDF1CC114F8
:10F97000D10499F685E0C05EDE4F088119812A81A5
:10F980003B81C052D140F80120935B008093570027
:10F99000E89507B600FCFDCF81E180935700E8951C
:10F9A00035C0C05EDE4F88819981AA81BB81C0527B
:10F9B000D140B695A795979587957C018601ABE0D8
:10F9C000AA2EB12CAC0EBD1E0BC0D5016D915D01F0
:10F9D000C7010F947FFE0894E11CF11C01501040F8
:10F9E0000115110591F7A60160E070E0440F551F65
:10F9F000661F771FC05EDE4FE880F9800A811B8199
:10FA0000C052D1404E0D5F1D601F711F1A82C05E33
:10FA1000DE4F488359836A837B83C052D1407FC0C5
:10FA2000FA80C55CDE4FF882CB53D140C65CDE4F16
:10FA30001882CA53D1408B81C82EDD24C65CDE4FAC
:10FA400008811981CA53D140C02AD12A1A828981DA
:10FA5000BE016D5F7F4F843121F59601C05EDE4FA0
:10FA6000E880F9800A811B81C052D1400BBFF701A9
:10FA700087919691DB018C9311969C936E5F7F4FDB
:10FA8000D801C7010296A11DB11DC05EDE4F88835B
:10FA90009983AA83BB83C052D14022503040F1F6F3
:10FAA00036C0C05EDE4F288139814A815B81C052F9
:10FAB000D1400894C108D108760100E010E0089414
:10FAC000C11CD11C0894E11CF11C011D111DE20E8A
:10FAD000F31E041F151F21BDBB27A52F942F832FB5
:10FAE00082BD2F5F3F4F4F4F5F4FF89A80B5DB01CC
:10FAF0008D93BD012E153F054007510761F7C05E8C
:10FB0000DE4F288339834A835B83C052D1409601FC
:10FB10002D5F3F4FFB01108204C080EC8A8322E0FE
:10FB200030E08BE18093C6008091C00086FFFCCF5F
:10FB30008091C00080648093C000C15DDE4FF88179
:10FB4000CF52D140F093C6008091C00086FFFCCF19
:10FB50008091C00080648093C000432F3093C60022
:10FB60008091C00086FFFCCF8091C00080648093AC
:10FB7000C000922F2093C6008091C00086FFFCCF6A
:10FB80008091C00080648093C0008EE08093C600A6
:10FB90008091C00086FFFCCF8091C000806480937C
:10FBA000C00065E1C15DDE4FE880CF52D1406E25D7
:10FBB00069276427FE01319610C090819093C6009A
:10FBC0008091C00086FFFCCF31968091C000806498
:10FBD0008093C0006927215030402115310569F715
:10FBE0006093C6008091C00086FFFCCF8091C0006A
:10FBF00080648093C00085B1805885B9772081F4F6
:10FC0000C15DDE4F0881CF52D1400F5FC15DDE4F35
:10FC10000883CF52D14090E0A0E0B0E00D941AF4F8
:10FC200027982F9880E090E020ED37E0F901319798
:10FC3000F1F7019684369105C9F700008091C00064
:10FC40008D7F8093C00081E180935700E895EE2777
:10FC5000FF270994FFCF90E00D941AF497FB092E2B
:10FC600007260AD077FD04D02ED006D000201AF443
:10FC7000709561957F4F0895F6F7909581959F4F08
:10FC80000895A1E21A2EAA1BBB1BFD010DC0AA1FDD
:10FC9000BB1FEE1FFF1FA217B307E407F50720F0F5
:10FCA000A21BB30BE40BF50B661F771F881F991F70
:10FCB0001A9469F760957095809590959B01AC01B9
:10FCC000BD01CF010895AA1BBB1B51E107C0AA1FAC
:10FCD000BB1FA617B70710F0A61BB70B881F991FED
:10FCE0005A95A9F780959095BC01CD010895F99991
:10FCF000FECF92BD81BDF89A992780B50895262F31
:10FD0000F999FECF1FBA92BD81BD20BD0FB6F89400
:0EFD1000FA9AF99A0FBE01960895F894FFCF63
:00000001FF
