:100000000C943E010C946F010C946F010C946F01E1
:100010000C946F010C946F010C946F010C946F01A0
:100020000C946F010C94640C0C94640C0C94640C90
:100030000C946F010C946F010C946F010C946F0180
:100040000C946F010C946F010C946F010C946F0170
:100050000C946F010C946F010C946F010C941A0CAA
:100060000C946F010C94F00B0C94C60B0C946F0164
:100070000C946F010C946F010C946F010C946F0140
:100080000C946F010C946F010C946F010C946F0130
:100090000C949C0B0C94720B0C946F010C946F01DC
:1000A0000C946F010C946F010C946F010C946F0110
:1000B0000C946F010C946F010C946F010C946F0100
:1000C0000C946F010C946F010C946F010C94480B0D
:1000D0000C941E0B0C946F010C94F40A0C94CA0A35
:1000E0000C946F010C942E030C942A030C94E501DC
:1000F0000C946E0C0C9426030C9416020C943B0387
:100100000C94CD110C9431030C9437030C944503DB
:100110000C9445040C949F010C945C030C946C02A9
:100120000C94B9020C9461030C94F4010C945703E1
:100130000C941C030C9408020C9441030C94490386
:100140000C945D030C944F030C9422030C949506BD
:100150000C9453030C944404000021002400270055
:100160002A002D00300033000101000004010701C6
:100170000A0100002200250028002B002E0031007B
:10018000340002010000050108010B0100002000FD
:100190002300260029002C002F003200000100005F
:1001A00003010601090105050505070508080808FA
:1001B000020202020A0A08080404040401010101FF
:1001C00001010101030303030303030304070707FA
:1001D0000C0C0C0C0C0C0C0C02020202060606069F
:1001E000060606060B0B0B0B0B0B0B0B010210206C
:1001F000200808102040102040800201020108045D
:1002000002010102040810204080804020100804F0
:100210000201800402018040201008040201080449
:10022000020101020408102040800102040810208D
:10023000408000000A0B02090C0D0E0807030401A0
:1002400000000000000000000000000000000000AE
:10025000000000000000000000000000000012117B
:10026000100000000000000000000000000000007E
:1002700000000000000000006E0CCD1111241FBE14
:10028000CFEFD1E2DEBFCDBF00E00CBF27E0A8E991
:10029000B4E001C01D92A33BB207E1F714E0A0E077
:1002A000B2E0E0EBF8E200E00BBF02C007900D9275
:1002B000A839B107D9F711E0CDE3D1E000E006C0DD
:1002C00021970109802FFE010E942812CC33D1070B
:1002D00080E00807A9F70E945C0D0C9446140C946A
:1002E0000000FC01A089B18982E08C93A485B585CA
:1002F0001C92A685B7858FEC8C93108EA489B58946
:1003000086E08C93A289B3898C9180618C93A289B9
:10031000B3898C9188608C93A289B3898C91806811
:100320008C930288F389E02D80818F7D80830895EE
:10033000DC01ED91FC910190F081E02D1994AF92D8
:10034000BF92CF92DF92EF92FF920F931F93CF93C2
:10035000DF936C017B018B01040F151FEB015E0124
:10036000AE18BF08C017D10759F06991D601ED91B9
:10037000FC910190F081E02DC6011995892B79F748
:10038000C501DF91CF911F910F91FF90EF90DF900A
:10039000CF90BF90AF900895FC01A089B1898C9156
:1003A000A689B78982FD0FC09C91818D8F5F8F7365
:1003B000228D821749F0A18DAE0FBF2FB11D5D9622
:1003C0009C93818F08958C910895FC01538D448DE9
:1003D000252F30E0842F90E0821B930B541710F0F0
:1003E000CF96089501970895FC01918D828D9817FD
:1003F00061F0A28DAE0FBF2FB11D5D968C91928DD5
:100400009F5F9F73928F90E008958FEF9FEF089505
:10041000FC01918D828D981731F0828DE80FF11DCE
:10042000858D90E008958FEF9FEF0895FC01918DE9
:10043000228D892F90E0805C9F4F821B91098F73E2
:100440009927089585EE94E00E94160221E0892BF9
:1004500009F420E0822F089582E895E00E941602B8
:1004600021E0892B09F420E0822F08958CEB96E09F
:100470000E94160221E0892B09F420E0822F0895C2
:100480008FE196E00E94160221E0892B09F420E01A
:10049000822F0895FC01A48DA80FB92FB11DA35A76
:1004A000BF4F2C91848D90E001968F739927848F94
:1004B000A689B7892C93A089B1898C9183708064B7
:1004C0008C93938D848D981306C00288F389E02D58
:1004D00080818F7D80830895EF92FF920F931F9309
:1004E000CF93DF93EC0181E0888F9B8D8C8D9813E7
:1004F0001AC0E889F989808185FF15C09FB7F894F3
:10050000EE89FF896083E889F9898081837080643E
:1005100080839FBF81E090E0DF91CF911F910F9189
:10052000FF90EF900895F62E0B8D10E00F5F1F4F98
:100530000F731127E02E8C8D8E110CC00FB607FCA7
:10054000FACFE889F989808185FFF5CFCE010E9435
:100550004A02F1CFEB8DEC0FFD2FF11DE35AFF4F57
:10056000F0829FB7F8940B8FEA89FB8980818062C3
:10057000CFCFCF93DF93EC01888D8823B9F0AA8980
:10058000BB89E889F9898C9185FD03C0808186FD4E
:100590000DC00FB607FCF7CF8C9185FFF2CF80819D
:1005A00085FFEDCFCE010E944A02E9CFDF91CF91C6
:1005B000089580E090E0892B29F00E94400281118B
:1005C0000E94000080E090E0892B29F00E94360212
:1005D00081110E94000080E090E0892B29F00E94A8
:1005E0002C0281110E94000080E090E0892B29F00C
:1005F0000E94220281110C940000089581508231E2
:1006000008F05AC0E82FF0E08827E65FFC4F8F4FD4
:100610000C9428122A032E031C03220326035C03D6
:10062000310337033B034103450349034F0353039E
:100630005C0357035D036103809180008F77809393
:1006400080000895809180008F7DF9CF8091800097
:10065000877FF5CF84B58F7784BD089584B58F7D6E
:10066000FBCF8091B0008F778093B0000895809188
:10067000B0008F7DF9CF809190008F7780939000AC
:100680000895809190008F7DF9CF80919000877FB1
:10069000F5CF8091A0008F778093A000089580917E
:1006A000A0008F7DF9CF8091A000877FF5CF80914A
:1006B00020018F77809320010895809120018F7D04
:1006C000F9CF80912001877FF5CFCF93DF93282F3B
:1006D00030E0F901EE5CFD4F8491F901E451FE4FE9
:1006E000D491F901EA55FE4FC491CC23A1F08111B8
:1006F0000E94FE02EC2FF0E0EE0FFF1FE457FE4FCA
:10070000A591B491EC91ED2381E090E009F480E0B3
:10071000DF91CF91089580E090E0FACF1F93CF93BF
:10072000DF93282F30E0F901EE5CFD4F8491F90151
:10073000E451FE4FD491F901EA55FE4FC491CC2308
:10074000A9F0162F81110E94FE02EC2FF0E0EE0FAF
:10075000FF1FEE58FE4FA591B4918FB7F894EC911E
:10076000111108C0D095DE23DC938FBFDF91CF91AC
:100770001F910895DE2BF8CFCF93DF9390E0FC011B
:10078000E451FE4F24918A559E4FFC0184918823A9
:10079000D1F090E0880F991FFC01E85AFE4FA59117
:1007A000B491FC01EE58FE4FC591D491623071F4C2
:1007B0009FB7F8943C91822F809583238C93E88196
:1007C0002E2B28839FBFDF91CF9108958FB7F89488
:1007D000EC912E2B2C938FBFF6CF3FB7F8948091DE
:1007E000C7049091C804A091C904B091CA0426B569
:1007F000A89B05C02F3F19F00196A11DB11D3FBF59
:10080000BA2FA92F982F8827BC01CD01620F711D27
:10081000811D911D42E0660F771F881F991F4A9521
:10082000D1F708958F929F92AF92BF92CF92DF92AD
:10083000EF92FF924B015C010E94ED036B017C0182
:100840000E94ED036C197D098E099F09683E734073
:1008500081059105A8F321E0821A9108A108B10849
:1008600088EEC80E83E0D81EE11CF11C81149104AF
:10087000A104B10429F7FF90EF90DF90CF90BF90D3
:10088000AF909F908F900895089590E080E0089534
:1008900085E00E946503892B19F481E08093DF04D1
:1008A00085E00E946503019711F41092DF0408951A
:1008B0000F931F93CF93DF938C01D0E0C0E0D8015A
:1008C00014968D919C911597C817D90790F4ED91C6
:1008D000FC91309759F41092BF04EFEBF4E0608183
:1008E00082E895E00E946C022196E9CFEC0FFD1F93
:1008F000F6CFDF91CF911F910F91089560E087E1CE
:100900000E948E0361E089E10E948E0361E08BE129
:100910000E948E0361E08DE10E948E038FE10E94B0
:100920006503892B19F481E38093000281E20E9420
:100930006503892B19F482E38093000283E20E940D
:100940006503892B19F483E38093000285E20E94FA
:100950006503892B19F481E48093000261E087E14B
:100960000E948E0360E089E10E948E0361E08BE1CA
:100970000E948E0361E08DE10E948E038FE10E9450
:100980006503892B19F484E38093000281E20E94BD
:100990006503892B19F485E38093000283E20E94AA
:1009A0006503892B19F486E38093000285E20E9497
:1009B0006503892B19F482E48093000261E087E1EA
:1009C0000E948E0361E089E10E948E0360E08BE16A
:1009D0000E948E0361E08DE10E948E038FE10E94F0
:1009E0006503892B19F487E38093000281E20E945A
:1009F0006503892B19F488E38093000283E20E9447
:100A00006503892B19F489E38093000285E20E9433
:100A10006503892B19F483E48093000261E087E188
:100A20000E948E0361E089E10E948E0361E08BE108
:100A30000E948E0360E08DE10E948E038FE10E9490
:100A40006503892B19F48AE28093000281E20E94F7
:100A50006503892B19F480E38093000283E20E94EE
:100A60006503892B19F483E28093000285E20E94DA
:100A70006503892B19F484E48093000280910002BD
:100A80000895CF93DF93EC0160E08E810E948E0386
:100A900061E08E810E948E0360E08E810E948E0351
:100AA0008BE891E00197F1F7DF91CF910895CF9214
:100AB000DF92EF92FF920F931F93CF93DF936C011E
:100AC0007C0187E0E80EF11CD0E0C0E0062F10E0CA
:100AD000B8010C2E02C0759567950A94E2F7617013
:100AE000F70181917F010E948E032196C430D105C8
:100AF00079F7C601DF91CF911F910F91FF90EF9091
:100B0000DF90CF900C944105CF92DF92EF92FF924D
:100B10000F931F93CF93DF93EC01F62E642F8C81FC
:100B20000E948E038D818F3F19F060E00E948E033A
:100B30000F2D10E08F8584FF25C06E0187E0C80E61
:100B4000D11CF12CE12CB8010E2C02C075956795D3
:100B50000A94E2F76170F60181916F010E948E03A1
:100B6000FFEFEF1AFF0A88E0E816F10461F7CE0103
:100B7000DF91CF911F910F91FF90EF90DF90CF9079
:100B80000C944105B80184E0759567958A95E1F765
:100B9000CE010E9457056F2DCE01DF91CF911F919D
:100BA0000F91FF90EF90DF90CF900C94570540E0AD
:100BB000682F87E997E00C94840581E00E94D705AF
:100BC0008BE39FE10197F1F70895CF93DF93823094
:100BD00029F49091A60798609093A6078093AA079E
:100BE0001092AB0780E48093AC0780E18093AD075F
:100BF00080E58093AE0761E080919B070E94BC0373
:100C000080919C078F3F19F061E00E94BC0361E076
:100C100080919D070E94BC03C7E9D7E09E01275938
:100C200037408091A60784FD0BC084E090E02196B8
:100C30002817390744F461E08E810E94BC03EECF8F
:100C400088E090E0F4CF8BE39DE00197F1F760E05E
:100C500080919B070E948E0360E080919D070E9417
:100C60008E0380919C078F3F19F060E00E948E03F5
:100C70008091A60784FD34C063E087E997E00E9475
:100C80005705CBE4D6E4CE010197F1F763E087E99D
:100C900097E00E9457052197F1F763E087E997E015
:100CA0000E94570583E592E00197F1F762E087E93A
:100CB00097E00E9457058091A60780620E94D705A1
:100CC00084E08093A7078CE00E94D7050E94DD0591
:100CD00082E08093A80786E0DF91CF910C94D7053E
:100CE00080620E94D7058BE496E40197F1F780912A
:100CF000A60780620E94D70583E592E00197F1F78D
:100D00008091A60780620E94D705D5CF9091AA074F
:100D1000691710F06FEF690FE62FF0E0E956F84F12
:100D20009489890F80680C94D70541E00E9484055E
:100D300081E090E00895FB0101900020E9F73197F0
:100D4000AF01461B570BDC01ED91FC910280F38152
:100D5000E02D1994CF93DF93FC014481558160818C
:100D600071818FE196E00E949F01EC0168E972E0D9
:100D70008FE196E00E949B068C0F9D1FDF91CF9123
:100D80000895BC0187E997E00C949B06AF92BF924F
:100D9000CF92DF92EF92FF920F931F93CF93DF9347
:100DA00003E010E084E0E82EF12CC5E0D0E0CC2494
:100DB000C394D12C22E0A22EB12C85EE94E00E94A7
:100DC0001602181619060CF063C085EE94E00E9416
:100DD000F40180939B04682F8FE196E00E949801B4
:100DE00080919B048334B1F19CF4813421F18234ED
:100DF00021F70E94DD0560E080E00E94860685EA1A
:100E000092E00E94C106B092D404A092D304D5CF40
:100E1000843479F1853489F60E94DD0560E080E054
:100E20000E94860683EC92E00E94C106D093D4040F
:100E3000C093D304C2CF0E94DD0560E080E00E9431
:100E400086068BE992E00E94C106D092D404C0923B
:100E5000D304B3CF0E94DD0560E080E00E948606E7
:100E60008FEA92E00E94C1061093D4040093D30449
:100E7000A4CF0E94DD0560E080E00E94860689EB39
:100E800092E00E94C106F092D404E092D30495CF80
:100E90008091D3049091D404DF91CF911F910F9151
:100EA000FF90EF90DF90CF90BF90AF9008954F925A
:100EB0005F926F927F928F929F92AF92BF92CF92EA
:100EC000DF92EF92FF920F931F93CF93DF93CDB7F3
:100ED000DEB7A1970FB6F894DEBF0FBECDBF8C0171
:100EE0006B01770FEE08FF08F7FE44C06DE20E9429
:100EF00098015C0122273327A9012C193D094E09CD
:100F00005F0919A2CE0181967C019AE0492E512CED
:100F1000612C712CCA01B901A30192010E94061231
:100F2000605DF70162937F0121153105410551058F
:100F300089F790E080E0309721F0BF01C8010E945E
:100F40009B068A0D9B1DA1960FB6F894DEBF0FBEBF
:100F5000CDBFDF91CF911F910F91FF90EF90DF9068
:100F6000CF90BF90AF909F908F907F906F905F9049
:100F70004F900895A701960119A2CE0181967C0198
:100F80008AE0882E912CA12CB12CCA01B901A501AF
:100F900094010E940612605DF70162937F012115A2
:100FA00031054105510589F790E080E0309759F20D
:100FB000BF01C8010E949B06C6CF0F931F93CF931A
:100FC000DF93EC0188819981009759F02A813B8158
:100FD0002617370730F081E0DF91CF911F910F91F5
:100FE00008958B016F5F7F4F0E945513009759F052
:100FF000998388831B830A832C813D81232B59F796
:10100000FC011082E8CF80E0E7CFEF92FF920F93D0
:101010001F93CF93DF936115710541F480E0DF9159
:10102000CF911F910F91FF90EF90089541155105B9
:10103000B1F07B01EC010C811D81040F151FB8017B
:101040000E94DD07882351F3288139818C819D819D
:10105000B701820F931F0E943F141D830C8381E010
:10106000DECFCF93DF93EC0188819981009711F057
:101070000E94CC12198218821D821C821B821A8245
:10108000DF91CF910895CF93DF93EC01FB010190A5
:101090000020E9F73197AF01461B570B0E94050866
:1010A000811103C0CE010E943108CE01DF91CF91A2
:1010B0000895CF93DF93EC01FB014481558160815A
:1010C00071810E940508811103C0CE010E94310880
:1010D000CE01DF91CF910895EF92FF920F931F936E
:1010E000CF93DF93EC017B018A01BA010E94DD07F7
:1010F00081110BC0CE010E943108CE01DF91CF914A
:101100001F910F91FF90EF9008951D830C83B701FD
:10111000888199810E943F14F0CF1F93CF93DF9372
:101120001F921F92CDB7DEB78FE196E00E941602A4
:10113000892B19F18FE196E00E94F401182F682F96
:101140008FE196E00E94980119831A8241E050E0F5
:10115000BE016F5F7F4F81E997E00E940508809193
:10116000B3049091B4040B9709F0DDC01092B4045D
:101170001092B30481E08093B2048091B20488237A
:1011800009F4B3C06091950770919607209191077B
:101190003091920790E080E08617970730F4F901CC
:1011A000E80FF91F2115310521F41092BF04EFEB70
:1011B000F4E04081FC01EA55FB4F408301968C30FE
:1011C000910551F750E040E06AE972E081E997E06B
:1011D0000E946C08E7E3F2E090E080E03191DC01EE
:1011E000AA55BB4F2C9132130AC02091A404309110
:1011F000A5042F5F3F4F3093A5042093A4040196CC
:101200008C30910559F7EBE2F2E090E080E031910B
:10121000DC01AA55BB4F2C9132130AC02091A204C5
:101220003091A3042F5F3F4F3093A3042093A20477
:1012300001968C30910559F7EFE1F2E090E080E003
:101240003191DC01AA55BB4F2C9132130AC0209179
:10125000A0043091A1042F5F3F4F3093A10420934D
:10126000A00401968C30910559F7E3E1F2E090E09B
:1012700080E03191DC01AA55BB4F2C9132130AC09A
:1012800020919E0430919F042F5F3F4F30939F0425
:1012900020939E0401968C30910559F7E7E0F2E027
:1012A00090E080E03191DC01AA55BB4F2C913213C4
:1012B0000AC020919C0430919D042F5F3F4F3093D2
:1012C0009D0420939C0401968C30910559F78091E0
:1012D000A4049091A5040C9781F581E090E090938F
:1012E000D6048093D5041092B2041092A5041092F3
:1012F000A4041092A3041092A2041092A1041092CC
:10130000A00410929F0410929E0410929D041092CB
:101310009C048091D5049091D6040F900F90DF919A
:10132000CF911F9108958091B3049091B4040196D8
:101330009093B4048093B304F7CE8091A20490916B
:10134000A3040C9719F482E090E0C9CF8091A00427
:101350009091A1040C9719F483E090E0C0CF8091A4
:101360009E0490919F040C9719F484E090E0B7CF0D
:1013700080919C0490919D040C9719F485E090E075
:10138000AECF1092D6041092D504ADCFEF92FF925B
:101390000F931F93CF93DF93CDB7DEB762970FB64E
:1013A000F894DEBF0FBECDBF8C01CB01F8011182D6
:1013B000108213821282158214824AE09E012F5FEE
:1013C0003F4F7901B9010E94D111F701019000202E
:1013D000E9F73197AF014E195F09B701C8010E94C3
:1013E0006C0862960FB6F894DEBF0FBECDBFDF91DA
:1013F000CF911F910F91FF90EF900895FB01DC01B9
:1014000011961C921E9213961C921E92129715967C
:101410001C921E9214978617970749F0608171817C
:101420006115710521F0448155810C946C08089573
:10143000FC01118210821382128215821482FB0138
:1014400001900020E9F73197AF01461B570B0C9430
:101450006C08FC0180819181009711F00C94CC12F2
:1014600008950F931F93CF93DF93CDB7DEB72C97DB
:101470000FB6F894DEBF0FBECDBF8B01A5EBB4E075
:101480002BE0289FA001299F500D112430E020E07F
:10149000F901E40FF51FE85CFD4F90819D932F5FEC
:1014A0003F4F2A303105A1F760ED77E080E090E012
:1014B0000E9412046DEC72E08FE196E00E949B06A0
:1014C00068E972E08FE196E00E949B0668EE73E0A7
:1014D00080E090E00E94120460ED72E08FE196E0FF
:1014E0000E949B0668E972E08FE196E00E949B06ED
:1014F00068EE73E080E090E00E94120465EB74E017
:10150000CE0107960E94180A6AED72E0CE0101969C
:101510000E94180ABE01695F7F4FCE0101960E94AA
:10152000590867EE72E00E9443080E94AA06CE01A5
:1015300001960E94290ACE0107960E94290A68EEA8
:1015400073E080E090E00E941204C8010E94AA06A5
:1015500068EE73E080E090E00E9412046AE18FE19F
:1015600096E00E94980168E972E08FE196E00E949F
:101570009B0668EE73E080E090E00E9412042C96D7
:101580000FB6F894DEBF0FBECDBFDF91CF911F9194
:101590000F9108951F920F920FB60F9211240BB660
:1015A0000F922F933F934F935F936F937F938F93FC
:1015B0009F93AF93BF93EF93FF9385EE94E00E94C8
:1015C0004A02FF91EF91BF91AF919F918F917F91CF
:1015D0006F915F914F913F912F910F900BBE0F90A4
:1015E0000FBE0F901F9018951F920F920FB60F927B
:1015F00011240BB60F922F933F934F935F936F93EA
:101600007F938F939F93AF93BF93EF93FF9385EE59
:1016100094E00E94CC01FF91EF91BF91AF919F9117
:101620008F917F916F915F914F913F912F910F908B
:101630000BBE0F900FBE0F901F9018951F920F9228
:101640000FB60F9211240BB60F922F933F934F9327
:101650005F936F937F938F939F93AF93BF93EF931A
:10166000FF9382E895E00E944A02FF91EF91BF91BB
:10167000AF919F918F917F916F915F914F913F912A
:101680002F910F900BBE0F900FBE0F901F901895CB
:101690001F920F920FB60F9211240BB60F922F9339
:1016A0003F934F935F936F937F938F939F93AF93EA
:1016B000BF93EF93FF9382E895E00E94CC01FF91E6
:1016C000EF91BF91AF919F918F917F916F915F91BA
:1016D0004F913F912F910F900BBE0F900FBE0F9027
:1016E0001F9018951F920F920FB60F9211240BB6F0
:1016F0000F922F933F934F935F936F937F938F93AB
:101700009F93AF93BF93EF93FF938CEB96E00E9470
:101710004A02FF91EF91BF91AF919F918F917F917D
:101720006F915F914F913F912F910F900BBE0F9052
:101730000FBE0F901F9018951F920F920FB60F9229
:1017400011240BB60F922F933F934F935F936F9398
:101750007F938F939F93AF93BF93EF93FF938CEB04
:1017600096E00E94CC01FF91EF91BF91AF919F91C4
:101770008F917F916F915F914F913F912F910F903A
:101780000BBE0F900FBE0F901F9018951F920F92D7
:101790000FB60F9211240BB60F922F933F934F93D6
:1017A0005F936F937F938F939F93AF93BF93EF93C9
:1017B000FF938FE196E00E944A02FF91EF91BF9163
:1017C000AF919F918F917F916F915F914F913F91D9
:1017D0002F910F900BBE0F900FBE0F901F9018957A
:1017E0001F920F920FB60F9211240BB60F922F93E8
:1017F0003F934F935F936F937F938F939F93AF9399
:10180000BF93EF93FF938FE196E00E94CC01FF918D
:10181000EF91BF91AF919F918F917F916F915F9168
:101820004F913F912F910F900BBE0F900FBE0F90D5
:101830001F9018951F920F920FB60F9211242F939D
:101840003F938F939F93AF93BF938091C3049091E5
:10185000C404A091C504B091C6043091C20423E031
:10186000230F2D3758F50196A11DB11D2093C204F9
:101870008093C3049093C404A093C504B093C6049A
:101880008091C7049091C804A091C904B091CA0482
:101890000196A11DB11D8093C7049093C804A09325
:1018A000C904B093CA04BF91AF919F918F913F91AA
:1018B0002F910F900FBE0F901F90189526E8230FC1
:1018C0000296A11DB11DD2CF1F920F920FB60F929B
:1018D00011240F900FBE0F901F901895CF93DF9398
:1018E000E5EEF4E01382128248EE53E060E070E02F
:1018F00044835583668377838EE792E09183808368
:1019000025E331E03587248724E331E037872687D4
:1019100020E331E0318B208B21E331E0338B228BCC
:1019200022E331E0358B248B26E331E0378B268BA5
:10193000118E128E138E148EE2E8F5E0138212825D
:1019400044835583668377839183808325ED30E0DC
:101950003587248724ED30E03787268720ED30E077
:10196000318B208B21ED30E0338B228B22ED30E068
:10197000358B248B26ED30E0378B268B118E128E23
:10198000138E148ECCEBD6E01B821A824C835D83BF
:101990006E837F83998388832DEC30E03D872C878D
:1019A0002CEC30E03F872E8728EC30E0398B288BF9
:1019B00029EC30E03B8B2A8B2AEC30E03D8B2C8BE2
:1019C0002EEC30E03F8B2E8B198E1A8E1B8E1C8EC8
:1019D000EFE1F6E0138212824483558366837783B6
:1019E0009183808385EC90E09587848784EC90E0F8
:1019F0009787868780EC90E0918B808B81EC90E0DC
:101A0000938B828B82EC90E0958B848B86EC90E0BC
:101A1000978B868B118E128E138E148EE7E9F7E06A
:101A20001382128280E992E0918380838DE0848327
:101A30008FEF85838CE086838BE087838AE08087C5
:101A400089E0818788E0828713861486158616864A
:101A5000178681E00E94E5056AE972E081E997E076
:101A60000E94180AE9E5F7E01782168211861086AF
:101A700020E430E033872287158614868FEF9FEFAE
:101A8000DC0186879787A08BB18B338B228B20E07C
:101A900031EE358B248B168A178A108E118E828F29
:101AA000938FA48FB58F15AA14AAD7ABC6ABD3ABAF
:101AB000C2ABDF91CF910895CF93DF93CDB7DEB75F
:101AC00062970FB6F894DEBF0FBECDBF789484B591
:101AD000826084BD84B5816084BD85B5826085BD2A
:101AE00085B5816085BD80916E00816080936E00B8
:101AF00010928100809181008260809381008091AA
:101B0000810081608093810080918000816080935A
:101B100080008091B10084608093B1008091B0001A
:101B200081608093B00080919100826080939100E9
:101B300080919100816080939100809190008160FC
:101B4000809390008091A10082608093A100809199
:101B5000A10081608093A1008091A00081608093AA
:101B6000A000809121018260809321018091210158
:101B70008160809321018091200181608093200108
:101B800080917A00846080937A0080917A008260EC
:101B900080937A0080917A00816080937A008091AE
:101BA0007A00806880937A001092C1008FE196E0FD
:101BB0000E94710182E00E94E5050E94DD0560E05F
:101BC00080E00E9486068AEE92E00E94C10668EEDE
:101BD00073E080E090E00E94120482E895E00E94A9
:101BE000710185EE94E00E94710161E087E10E943D
:101BF000BC0361E089E10E94BC0361E08BE10E94CB
:101C0000BC0361E08DE10E94BC0362E08FE10E94B1
:101C1000BC0362E081E20E94BC0362E083E20E94B6
:101C2000BC0362E085E20E94BC0362E085E00E94A2
:101C3000BC0338E7D32E4FEDE42E44E0F42E10928F
:101C4000D6041092D5041092E2041092E104D092CE
:101C500000020E9448040E94DD0560E080E00E94CE
:101C6000860684EF92E00E94C1060E9448040E940A
:101C70008D080E948D08892BC1F361E080E00E94ED
:101C800086066091D5047091D60487E997E00E949A
:101C900057078091D5049091D6049093E4048093E3
:101CA000E3041092D4041092D3040E94DD0560E096
:101CB00080E00E94860683E093E00E94C1060E94B5
:101CC00048040E94C6060E94C606892BC1F361E043
:101CD00080E00E9486066091D3047091D40487E965
:101CE00097E00E9457070091D3041091D4041093F9
:101CF000E2040093E10460ED77E080E090E00E9470
:101D000012048091E3049091E4048530910509F078
:101D10005EC10530110509F0FBC0D09200020E949F
:101D2000DD0560E080E00E9486068DE093E00E9481
:101D3000C10660E086E00E94860683E193E00E948F
:101D4000C10661E080E00E9486068DE193E00E947A
:101D5000C1060E947E040E947E048837D1F30E944F
:101D60007E04813309F085C0E091CD04F091CE046A
:101D70002091CF043091D0046091D1047091D204AD
:101D80004091CB045091CC04A7EDB4E08D919D918E
:101D90008130910509F00AC16F5F7F4FEA16FB069B
:101DA000A9F7F093CE04E093CD047093D20460932E
:101DB000D1045093CC044093CB043093D0042093AF
:101DC000CF040E94DD0560E080E00E94860686E286
:101DD00093E00E94C1066091D1047091D20487E91A
:101DE00097E00E94570760E088E00E9486068CE238
:101DF00093E00E94C1066091CF047091D00487E9FE
:101E000097E00E94570761E080E00E94860682E327
:101E100093E00E94C1066091CD047091CE0487E9E1
:101E200097E00E94570761E088E00E94860687E3FA
:101E300093E00E94C1066091CB047091CC0487E9C5
:101E400097E00E94570760ED77E080E090E00E9405
:101E500012041092D2041092D1041092D004109265
:101E6000CF041092CE041092CD041092CC041092A4
:101E7000CB040E947E04823309F581E08093E00464
:101E80000E94DD0560E080E00E9486066DE373E05D
:101E9000CE0101960E94180ACE0101960E945804B4
:101EA000CE0101960E94290A82E593E00E94C106B4
:101EB00060ED77E080E090E00E9412040E947E04D2
:101EC000833301F51092E0040E94DD0560E080E0BC
:101ED0000E9486066DE373E0CE0101960E94180A07
:101EE000CE0101960E945804CE0101960E94290A53
:101EF00082E693E00E94C10660ED77E080E090E02A
:101F00000E941204D09200021092D4041092D304C2
:101F100060ED77E080E090E00E9412040091E3041D
:101F20001091E4040530110509F41AC28091E1040E
:101F30009091E204059709F413C20E94480490911D
:101F4000E0048091DF04992309F4D4C1882309F4C3
:101F5000ACC1000F111FF801EB52FB4F8081918142
:101F6000892B09F046C10E94DD0560E080E00E94F7
:101F700086068AE094E00E94C10661E080E00E944B
:101F8000860682E194E00E94C1066091E3047091AC
:101F9000E40487E997E00E94570760ED77E080E06E
:101FA00090E00E9412040E94D90249CE823091052D
:101FB00019F42F5F3F4FF2CE8330910511F4319623
:101FC000EDCE049709F0EACE4F5F5F4FE7CE0817DA
:101FD000190721F00530110509F09ACFD0920002BF
:101FE0000E94DD0560E080E00E94860681E793E0C4
:101FF0000E94C10660E088E00E94860687E793E0C1
:102000000E94C10661E080E00E9486068EE793E0B0
:102010000E94C10661E088E00E94860684E893E0A1
:102020000E94C1060E947E040E947E048837D1F37C
:1020300080910002E091E304F091E404EE0FFF1FB1
:10204000EB52FB4F082E000C990BC09791838083B5
:102050000E94DD0560E080E00E9486068BE893E048
:102060000E94C10661E080E00E9486066091000245
:1020700087E997E00E94980161E085E00E9486066A
:10208000E091E304F091E404EE0FFF1FEB52FB4FED
:102090006081718187E997E00E94570707ED14E09E
:1020A000F801619171918F018FE196E00E945707CD
:1020B00068E972E08FE196E00E949B06F4E00F3D34
:1020C0001F0771F78091E1049091E204059709F0F0
:1020D00041C06091E3047091E404CE0107960E9430
:1020E000C6096EE973E0CE010D960E94180ABE0182
:1020F000695F7F4FCE010D960E94590866EA73E032
:102100000E944308BC01CE0101960E94FE09CE0147
:1021100001960E945804CE0101960E94290ACE0120
:102120000D960E94290ACE0107960E94290A62ECA8
:1021300073E0CE0101960E94180ABE016F5F7F4FC7
:102140008091E3049091E4040E94310ACE0101964B
:102150000E94290A6091E1047091E2048091E304F5
:102160009091E40468177907E9F5CE0107960E947B
:10217000C6096CED73E0CE010D960E94180ABE01EF
:10218000695F7F4FCE010D960E94590865EE73E09E
:102190000E944308BC01CE0101960E94FE09CE01B7
:1021A00001960E945804CE0101960E94290ACE0190
:1021B0000D960E94290ACE0107960E94290A68EF0F
:1021C00073E0CE0101960E94180ABE016F5F7F4F37
:1021D0008091E3049091E4040E94310ACE010196BB
:1021E0000E94290A60ED77E080E090E00E941204EE
:1021F0008FCE0E94DD0560E080E00E9486068AE1C5
:1022000094E00E94C10661E080E00E94860682E1BF
:1022100094E00E94C1066091E3047091E40487E9B0
:1022200097E00E9457076091E3047091E404CE01A7
:1022300007960E94C6096CED73E0CE010D960E94D0
:10224000180ABE01695F7F4FCE010D960E945908A2
:1022500068E274E00E944308BC01CE0101960E942E
:10226000FE09CE0101960E945804CE0101960E94FB
:10227000290ACE010D960E94290ACE0107960E94D6
:10228000290A6AE174E0CE0101960E94180ABE0193
:102290006F5F7F4F8091E3049091E4040E94310AC4
:1022A000CE0101960E94290A78CE0E94DD0560E0E9
:1022B00080E00E94860668E374E0CE0101960E94E9
:1022C000180ACE0101960E945804CE0101960E9480
:1022D000290A60E080E00E9486068AE494E00E9479
:1022E000C10661E080E00E94860686E594E00E94D7
:1022F000C10653CE811117C00E94DD0568E374E06A
:10230000CE0101960E94180ACE0101960E9458043F
:10231000CE0101960E94290A60E080E00E948606B4
:1023200082E694E0DCCF0E94DD0560E080E00E9460
:10233000860682E694E00E94C10661E080E00E9489
:10234000860680E794E00E94C10668E374E0CE014F
:1023500001960E94180ACE0101960E945804A0CF4F
:102360000E94DD0560E080E00E9486068CE794E034
:102370000E94C10661E080E00E94860682E194E04E
:102380000E94C1066091E3047091E40487E997E03C
:102390000E94570767E874E0DACF81E997E00C9470
:1023A000290ABB274A3031F4992322F4BDE29095E3
:1023B00081959F4F0C94DD11BB27FB015527AA2760
:1023C000880F991FAA1FA41710F0A41B83955051C2
:1023D000B9F7A05DAA3308F0A95DA193009779F73A
:1023E000B111B1931192CB010C94F611DC01FC01F7
:1023F000672F71917723E1F7329704C07C916D9339
:1024000070836291AE17BF07C8F30895A1E21A2E38
:10241000AA1BBB1BFD010DC0AA1FBB1FEE1FFF1F88
:10242000A217B307E407F50720F0A21BB30BE40BD8
:10243000F50B661F771F881F991F1A9469F760951F
:102440007095809590959B01AC01BD01CF010895D9
:10245000EE0FFF1F881F8BBF0790F691E02D199498
:102460000F931F93CF93DF938230910510F482E096
:1024700090E0E091B107F091B20730E020E0B0E0E9
:10248000A0E0309799F42115310509F44AC0281BC2
:10249000390B24303105D8F58A819B81611571058E
:1024A00089F1FB0193838283FE0111C04081518138
:1024B0000281138148175907E0F04817590799F42A
:1024C000109761F012960C93129713961C93329604
:1024D000CF01DF91CF911F910F9108950093B10724
:1024E0001093B207F4CF2115310551F0421753076D
:1024F00038F0A901DB019A01BD01DF01F801C1CF6C
:10250000EF01F9CF9093B2078093B107CDCFFE01D1
:10251000E20FF31F8193919322503109398328836D
:10252000D7CF2091AF073091B007232B41F42091F2
:102530000302309104023093B0072093AF0720913B
:102540000102309102022115310541F42DB73EB749
:102550004091050250910602241B350BE091AF0714
:10256000F091B007E217F307A0F42E1B3F0B2817DA
:10257000390778F0AC014E5F5F4F2417350748F0FC
:102580004E0F5F1F5093B0074093AF078193919315
:102590009FCFF0E0E0E09CCFCF93DF930097E9F08E
:1025A000FC01329713821282A091B107B091B20759
:1025B000ED0130E020E01097A1F420813181820FFD
:1025C000931F2091AF073091B0072817390709F002
:1025D00061C0F093B007E093AF07DF91CF9108950A
:1025E000EA01CE17DF07E8F54A815B819E014115BC
:1025F0005105B1F7E901FB83EA8349915991C40F71
:10260000D51FEC17FD0761F4808191810296840F3C
:10261000951FE90199838883828193819B838A83B3
:10262000F0E0E0E012968D919C9113970097B9F538
:102630002D913C911197CD010296820F931F20910D
:10264000AF073091B0072817390739F6309751F5A1
:102650001092B2071092B107B093B007A093AF07E2
:10266000BCCFD383C28340815181840F951FC8178B
:10267000D90761F44E5F5F4F88819981480F591FD8
:10268000518340838A819B81938382832115310505
:1026900009F0B0CFF093B207E093B1079ECFFD01F0
:1026A000DC01C0CF13821282D7CF4F925F926F921C
:1026B0007F928F929F92AF92BF92CF92DF92EF92D2
:1026C000FF920F931F93CF93DF938C01009799F4A0
:1026D000CB01DF91CF911F910F91FF90EF90DF9091
:1026E000CF90BF90AF909F908F907F906F905F90B2
:1026F0004F900C943012FC01E60FF71F9C01225002
:102700003109E217F30708F4AEC0D901CD91DC918D
:102710001197C617D70720F1C530D10578F0CE0143
:1027200004978617970750F0C61BD70B2297C193C3
:10273000D1936D937C93CF010E94CC12C801DF919D
:10274000CF911F910F91FF90EF90DF90CF90BF90AE
:10275000AF909F908F907F906F905F904F90089573
:102760005B01AC1ABD0A4C018C0E9D1EA091B107F5
:10277000B091B207512C412CF12CE12C109731F57E
:102780008091AF079091B0078815990509F05CC05A
:102790004616570608F058C0809101029091020237
:1027A000009741F48DB79EB7409105025091060203
:1027B000841B950BE817F90708F055C0F093B00794
:1027C000E093AF07F90171836083B8CF8D919C913D
:1027D000119712966C90129713967C901397A815E8
:1027E000B90559F56C0142E0C40ED11CCA14DB04D2
:1027F00020F1AC014A195B09DA011296159780F0B5
:102800006282738251834083D9016D937C93E1147A
:10281000F10471F0D7011396FC93EE9312978ECFCB
:1028200022968C0F9D1FF90191838083F301EFCFD6
:10283000F093B207E093B10781CF4816590608F428
:102840002C017D01D3019ACFCB010E9430127C0173
:10285000009749F0AE01B8010E943614C8010E94E9
:10286000CC1287016BCF10E000E068CFFB01DC01E8
:1028700002C001900D9241505040D8F70895FB01DD
:10288000DC0101900D920020E1F7089511E0CDE305
:10289000D1E000E006C0802FFE010E9428122196A0
:1028A000011DCE33D10780E00807A9F7F894FFCFC8
:1028B000780000B307800038373030383435353091
:1028C0003835453837303038343034443044373890
:1028D0003730303834344537333345383730303992
:1028E0003036343144364538373030383534364375
:1028F0004538413831383939383833343700383091
:102900003939353532363737003831383939383892
:1029100033343700383138393938383334370038C0
:1029200031383939383833343700000000006C0250
:102930009F01E501B9021602F4010802000000003F
:1029400095069F01450444040D0A00464143452075
:1029500049443A3100464143452049443A32004611
:102960004143452049443A330046414345204944C8
:102970003A3400464143452049443A350041540029
:1029800041542B434D47463D310041542B434D4765
:10299000533D222B393100220D0020564F54494E11
:1029A00047372000504C41434520564F5445522054
:1029B00049440053484F5720464143450031205475
:1029C0004F54003220504C2D535452540033205059
:1029D0004C2D53545000444D4B3A200041444D4B34
:1029E0003A00424A503A004E4F54413A002A504F62
:1029F0004C4C494E475F535441525445445F504FED
:102A00002300504F4C4C494E47205354415254459B
:102A10004400504F4C4C494E472053544F5045446E
:102A2000003120444D4B00322041444D4B003320B7
:102A3000424A500034204E4F544100564F544544B2
:102A4000205355434345535346554C4C59002A5047
:102A50004552534F4E00564F5445445F53554343E0
:102A600045535346554C4C595F504F5F4155544860
:102A70002300564F5445445F5355434553534655E1
:102A80004C4C595F504F5F41555448002A504552B5
:102A9000534F4E5F00564F5445445F535543455383
:102AA0005346554C4C592300564F544544205355DA
:102AB0004345535346554C4C590077656C636F6DD5
:102AC0006500504552534F4E3A00414C52454144E7
:102AD0005920564F54454400414C52454144595F9A
:102AE000564F5454454423002A504F4C4C494E47AE
:102AF0005F53544F505045442300424F4F54482099
:102B0000535441525400494F542053544F50504550
:102B10004400424F4F54482053544F5050454400B6
:102B2000494F5420535441525445440057454C4357
:102B30004F4D4520504F002A502E4F2E4C4F4747A7
:082B400045445F494E230000EB
:00000001FF
